{
	"healt.sol": {
		"HealthComplaints": {
			"abi": [
				{
					"anonymous": false,
					"inputs": [
						{
							"indexed": false,
							"internalType": "uint256",
							"name": "id",
							"type": "uint256"
						},
						{
							"indexed": false,
							"internalType": "address",
							"name": "patient",
							"type": "address"
						}
					],
					"name": "NewComplaint",
					"type": "event"
				},
				{
					"anonymous": false,
					"inputs": [
						{
							"indexed": false,
							"internalType": "uint256",
							"name": "id",
							"type": "uint256"
						},
						{
							"indexed": false,
							"internalType": "string",
							"name": "reply",
							"type": "string"
						}
					],
					"name": "Replied",
					"type": "event"
				},
				{
					"inputs": [
						{
							"internalType": "string",
							"name": "_complaintText",
							"type": "string"
						}
					],
					"name": "addComplaint",
					"outputs": [],
					"stateMutability": "nonpayable",
					"type": "function"
				},
				{
					"inputs": [],
					"name": "complaintCount",
					"outputs": [
						{
							"internalType": "uint256",
							"name": "",
							"type": "uint256"
						}
					],
					"stateMutability": "view",
					"type": "function"
				},
				{
					"inputs": [
						{
							"internalType": "uint256",
							"name": "",
							"type": "uint256"
						}
					],
					"name": "complaints",
					"outputs": [
						{
							"internalType": "uint256",
							"name": "id",
							"type": "uint256"
						},
						{
							"internalType": "address",
							"name": "patient",
							"type": "address"
						},
						{
							"internalType": "string",
							"name": "complaintText",
							"type": "string"
						},
						{
							"internalType": "string",
							"name": "reply",
							"type": "string"
						},
						{
							"internalType": "bool",
							"name": "replied",
							"type": "bool"
						}
					],
					"stateMutability": "view",
					"type": "function"
				},
				{
					"inputs": [
						{
							"internalType": "uint256",
							"name": "_id",
							"type": "uint256"
						}
					],
					"name": "getComplaint",
					"outputs": [
						{
							"internalType": "string",
							"name": "",
							"type": "string"
						},
						{
							"internalType": "string",
							"name": "",
							"type": "string"
						}
					],
					"stateMutability": "view",
					"type": "function"
				},
				{
					"inputs": [
						{
							"internalType": "uint256",
							"name": "_id",
							"type": "uint256"
						},
						{
							"internalType": "string",
							"name": "_reply",
							"type": "string"
						}
					],
					"name": "replyToComplaint",
					"outputs": [],
					"stateMutability": "nonpayable",
					"type": "function"
				}
			],
			"devdoc": {
				"kind": "dev",
				"methods": {},
				"version": 1
			},
			"evm": {
				"assembly": "    /* \"healt.sol\":60:1291  contract HealthComplaints {... */\n  mstore(0x40, 0x80)\n  callvalue\n  dup1\n  iszero\n  tag_1\n  jumpi\n  0x00\n  dup1\n  revert\ntag_1:\n  pop\n  dataSize(sub_0)\n  dup1\n  dataOffset(sub_0)\n  0x00\n  codecopy\n  0x00\n  return\nstop\n\nsub_0: assembly {\n        /* \"healt.sol\":60:1291  contract HealthComplaints {... */\n      mstore(0x40, 0x80)\n      callvalue\n      dup1\n      iszero\n      tag_1\n      jumpi\n      0x00\n      dup1\n      revert\n    tag_1:\n      pop\n      jumpi(tag_2, lt(calldatasize, 0x04))\n      shr(0xe0, calldataload(0x00))\n      dup1\n      0x2edea294\n      eq\n      tag_3\n      jumpi\n      dup1\n      0x7e69e912\n      eq\n      tag_4\n      jumpi\n      dup1\n      0xdd681725\n      eq\n      tag_5\n      jumpi\n      dup1\n      0xdeb514ff\n      eq\n      tag_6\n      jumpi\n      dup1\n      0xdee8ae43\n      eq\n      tag_7\n      jumpi\n    tag_2:\n      0x00\n      dup1\n      revert\n        /* \"healt.sol\":283:309  uint public complaintCount */\n    tag_3:\n      tag_8\n      tag_9\n      jump\t// in\n    tag_8:\n      mload(0x40)\n      tag_10\n      swap2\n      swap1\n      tag_11\n      jump\t// in\n    tag_10:\n      mload(0x40)\n      dup1\n      swap2\n      sub\n      swap1\n      return\n        /* \"healt.sol\":247:276  Complaint[] public complaints */\n    tag_4:\n      tag_12\n      0x04\n      dup1\n      calldatasize\n      sub\n      dup2\n      add\n      swap1\n      tag_13\n      swap2\n      swap1\n      tag_14\n      jump\t// in\n    tag_13:\n      tag_15\n      jump\t// in\n    tag_12:\n      mload(0x40)\n      tag_16\n      swap6\n      swap5\n      swap4\n      swap3\n      swap2\n      swap1\n      tag_17\n      jump\t// in\n    tag_16:\n      mload(0x40)\n      dup1\n      swap2\n      sub\n      swap1\n      return\n        /* \"healt.sol\":414:656  function addComplaint(string memory _complaintText) public {... */\n    tag_5:\n      tag_18\n      0x04\n      dup1\n      calldatasize\n      sub\n      dup2\n      add\n      swap1\n      tag_19\n      swap2\n      swap1\n      tag_20\n      jump\t// in\n    tag_19:\n      tag_21\n      jump\t// in\n    tag_18:\n      stop\n        /* \"healt.sol\":664:1074  function replyToComplaint(uint _id, string memory _reply) public {... */\n    tag_6:\n      tag_22\n      0x04\n      dup1\n      calldatasize\n      sub\n      dup2\n      add\n      swap1\n      tag_23\n      swap2\n      swap1\n      tag_24\n      jump\t// in\n    tag_23:\n      tag_25\n      jump\t// in\n    tag_22:\n      stop\n        /* \"healt.sol\":1082:1288  function getComplaint(uint _id) public view returns (string memory, string memory) {... */\n    tag_7:\n      tag_26\n      0x04\n      dup1\n      calldatasize\n      sub\n      dup2\n      add\n      swap1\n      tag_27\n      swap2\n      swap1\n      tag_14\n      jump\t// in\n    tag_27:\n      tag_28\n      jump\t// in\n    tag_26:\n      mload(0x40)\n      tag_29\n      swap3\n      swap2\n      swap1\n      tag_30\n      jump\t// in\n    tag_29:\n      mload(0x40)\n      dup1\n      swap2\n      sub\n      swap1\n      return\n        /* \"healt.sol\":283:309  uint public complaintCount */\n    tag_9:\n      sload(0x01)\n      dup2\n      jump\t// out\n        /* \"healt.sol\":247:276  Complaint[] public complaints */\n    tag_15:\n      0x00\n      dup2\n      dup2\n      sload\n      dup2\n      lt\n      tag_31\n      jumpi\n      0x00\n      dup1\n      revert\n    tag_31:\n      swap1\n      0x00\n      mstore\n      keccak256(0x00, 0x20)\n      swap1\n      0x05\n      mul\n      add\n      0x00\n      swap2\n      pop\n      swap1\n      pop\n      dup1\n      0x00\n      add\n      sload\n      swap1\n      dup1\n      0x01\n      add\n      0x00\n      swap1\n      sload\n      swap1\n      0x0100\n      exp\n      swap1\n      div\n      0xffffffffffffffffffffffffffffffffffffffff\n      and\n      swap1\n      dup1\n      0x02\n      add\n      dup1\n      sload\n      tag_33\n      swap1\n      tag_34\n      jump\t// in\n    tag_33:\n      dup1\n      0x1f\n      add\n      0x20\n      dup1\n      swap2\n      div\n      mul\n      0x20\n      add\n      mload(0x40)\n      swap1\n      dup2\n      add\n      0x40\n      mstore\n      dup1\n      swap3\n      swap2\n      swap1\n      dup2\n      dup2\n      mstore\n      0x20\n      add\n      dup3\n      dup1\n      sload\n      tag_35\n      swap1\n      tag_34\n      jump\t// in\n    tag_35:\n      dup1\n      iszero\n      tag_36\n      jumpi\n      dup1\n      0x1f\n      lt\n      tag_37\n      jumpi\n      0x0100\n      dup1\n      dup4\n      sload\n      div\n      mul\n      dup4\n      mstore\n      swap2\n      0x20\n      add\n      swap2\n      jump(tag_36)\n    tag_37:\n      dup3\n      add\n      swap2\n      swap1\n      0x00\n      mstore\n      keccak256(0x00, 0x20)\n      swap1\n    tag_38:\n      dup2\n      sload\n      dup2\n      mstore\n      swap1\n      0x01\n      add\n      swap1\n      0x20\n      add\n      dup1\n      dup4\n      gt\n      tag_38\n      jumpi\n      dup3\n      swap1\n      sub\n      0x1f\n      and\n      dup3\n      add\n      swap2\n    tag_36:\n      pop\n      pop\n      pop\n      pop\n      pop\n      swap1\n      dup1\n      0x03\n      add\n      dup1\n      sload\n      tag_39\n      swap1\n      tag_34\n      jump\t// in\n    tag_39:\n      dup1\n      0x1f\n      add\n      0x20\n      dup1\n      swap2\n      div\n      mul\n      0x20\n      add\n      mload(0x40)\n      swap1\n      dup2\n      add\n      0x40\n      mstore\n      dup1\n      swap3\n      swap2\n      swap1\n      dup2\n      dup2\n      mstore\n      0x20\n      add\n      dup3\n      dup1\n      sload\n      tag_40\n      swap1\n      tag_34\n      jump\t// in\n    tag_40:\n      dup1\n      iszero\n      tag_41\n      jumpi\n      dup1\n      0x1f\n      lt\n      tag_42\n      jumpi\n      0x0100\n      dup1\n      dup4\n      sload\n      div\n      mul\n      dup4\n      mstore\n      swap2\n      0x20\n      add\n      swap2\n      jump(tag_41)\n    tag_42:\n      dup3\n      add\n      swap2\n      swap1\n      0x00\n      mstore\n      keccak256(0x00, 0x20)\n      swap1\n    tag_43:\n      dup2\n      sload\n      dup2\n      mstore\n      swap1\n      0x01\n      add\n      swap1\n      0x20\n      add\n      dup1\n      dup4\n      gt\n      tag_43\n      jumpi\n      dup3\n      swap1\n      sub\n      0x1f\n      and\n      dup3\n      add\n      swap2\n    tag_41:\n      pop\n      pop\n      pop\n      pop\n      pop\n      swap1\n      dup1\n      0x04\n      add\n      0x00\n      swap1\n      sload\n      swap1\n      0x0100\n      exp\n      swap1\n      div\n      0xff\n      and\n      swap1\n      pop\n      dup6\n      jump\t// out\n        /* \"healt.sol\":414:656  function addComplaint(string memory _complaintText) public {... */\n    tag_21:\n        /* \"healt.sol\":484:494  complaints */\n      0x00\n        /* \"healt.sol\":500:564  Complaint(complaintCount, msg.sender, _complaintText, \"\", false) */\n      mload(0x40)\n      dup1\n      0xa0\n      add\n      0x40\n      mstore\n      dup1\n        /* \"healt.sol\":510:524  complaintCount */\n      sload(0x01)\n        /* \"healt.sol\":500:564  Complaint(complaintCount, msg.sender, _complaintText, \"\", false) */\n      dup2\n      mstore\n      0x20\n      add\n        /* \"healt.sol\":526:536  msg.sender */\n      caller\n        /* \"healt.sol\":500:564  Complaint(complaintCount, msg.sender, _complaintText, \"\", false) */\n      0xffffffffffffffffffffffffffffffffffffffff\n      and\n      dup2\n      mstore\n      0x20\n      add\n        /* \"healt.sol\":538:552  _complaintText */\n      dup4\n        /* \"healt.sol\":500:564  Complaint(complaintCount, msg.sender, _complaintText, \"\", false) */\n      dup2\n      mstore\n      0x20\n      add\n      mload(0x40)\n      dup1\n      0x20\n      add\n      0x40\n      mstore\n      dup1\n      0x00\n      dup2\n      mstore\n      pop\n      dup2\n      mstore\n      0x20\n      add\n        /* \"healt.sol\":558:563  false */\n      0x00\n        /* \"healt.sol\":500:564  Complaint(complaintCount, msg.sender, _complaintText, \"\", false) */\n      iszero\n      iszero\n      dup2\n      mstore\n      pop\n        /* \"healt.sol\":484:565  complaints.push(Complaint(complaintCount, msg.sender, _complaintText, \"\", false)) */\n      swap1\n      dup1\n      0x01\n      dup2\n      sload\n      add\n      dup1\n      dup3\n      sstore\n      dup1\n      swap2\n      pop\n      pop\n      0x01\n      swap1\n      sub\n      swap1\n      0x00\n      mstore\n      keccak256(0x00, 0x20)\n      swap1\n      0x05\n      mul\n      add\n      0x00\n      swap1\n      swap2\n      swap1\n      swap2\n      swap1\n      swap2\n      pop\n      0x00\n      dup3\n      add\n      mload\n      dup2\n      0x00\n      add\n      sstore\n      0x20\n      dup3\n      add\n      mload\n      dup2\n      0x01\n      add\n      exp(0x0100, 0x00)\n      dup2\n      sload\n      dup2\n      0xffffffffffffffffffffffffffffffffffffffff\n      mul\n      not\n      and\n      swap1\n      dup4\n      0xffffffffffffffffffffffffffffffffffffffff\n      and\n      mul\n      or\n      swap1\n      sstore\n      pop\n      0x40\n      dup3\n      add\n      mload\n      dup2\n      0x02\n      add\n      swap1\n      dup2\n      tag_46\n      swap2\n      swap1\n      tag_47\n      jump\t// in\n    tag_46:\n      pop\n      0x60\n      dup3\n      add\n      mload\n      dup2\n      0x03\n      add\n      swap1\n      dup2\n      tag_48\n      swap2\n      swap1\n      tag_47\n      jump\t// in\n    tag_48:\n      pop\n      0x80\n      dup3\n      add\n      mload\n      dup2\n      0x04\n      add\n      exp(0x0100, 0x00)\n      dup2\n      sload\n      dup2\n      0xff\n      mul\n      not\n      and\n      swap1\n      dup4\n      iszero\n      iszero\n      mul\n      or\n      swap1\n      sstore\n      pop\n      pop\n      pop\n        /* \"healt.sol\":581:621  NewComplaint(complaintCount, msg.sender) */\n      0xfc180013b287e88eaa9ed474e70438808f32509f3d91c3f96d85db8abe645e12\n        /* \"healt.sol\":594:608  complaintCount */\n      sload(0x01)\n        /* \"healt.sol\":610:620  msg.sender */\n      caller\n        /* \"healt.sol\":581:621  NewComplaint(complaintCount, msg.sender) */\n      mload(0x40)\n      tag_49\n      swap3\n      swap2\n      swap1\n      tag_50\n      jump\t// in\n    tag_49:\n      mload(0x40)\n      dup1\n      swap2\n      sub\n      swap1\n      log1\n        /* \"healt.sol\":632:646  complaintCount */\n      0x01\n      0x00\n        /* \"healt.sol\":632:648  complaintCount++ */\n      dup2\n      sload\n      dup1\n      swap3\n      swap2\n      swap1\n      tag_51\n      swap1\n      tag_52\n      jump\t// in\n    tag_51:\n      swap2\n      swap1\n      pop\n      sstore\n      pop\n        /* \"healt.sol\":414:656  function addComplaint(string memory _complaintText) public {... */\n      pop\n      jump\t// out\n        /* \"healt.sol\":664:1074  function replyToComplaint(uint _id, string memory _reply) public {... */\n    tag_25:\n        /* \"healt.sol\":740:767  Complaint storage complaint */\n      0x00\n        /* \"healt.sol\":770:780  complaints */\n      dup1\n        /* \"healt.sol\":781:784  _id */\n      dup4\n        /* \"healt.sol\":770:785  complaints[_id] */\n      dup2\n      sload\n      dup2\n      lt\n      tag_54\n      jumpi\n      tag_55\n      tag_56\n      jump\t// in\n    tag_55:\n    tag_54:\n      swap1\n      0x00\n      mstore\n      keccak256(0x00, 0x20)\n      swap1\n      0x05\n      mul\n      add\n        /* \"healt.sol\":740:785  Complaint storage complaint = complaints[_id] */\n      swap1\n      pop\n        /* \"healt.sol\":805:814  complaint */\n      dup1\n        /* \"healt.sol\":805:822  complaint.replied */\n      0x04\n      add\n      0x00\n      swap1\n      sload\n      swap1\n      0x0100\n      exp\n      swap1\n      div\n      0xff\n      and\n        /* \"healt.sol\":804:822  !complaint.replied */\n      iszero\n        /* \"healt.sol\":796:852  require(!complaint.replied, \"Complaint already replied\") */\n      tag_58\n      jumpi\n      mload(0x40)\n      0x08c379a000000000000000000000000000000000000000000000000000000000\n      dup2\n      mstore\n      0x04\n      add\n      tag_59\n      swap1\n      tag_60\n      jump\t// in\n    tag_59:\n      mload(0x40)\n      dup1\n      swap2\n      sub\n      swap1\n      revert\n    tag_58:\n        /* \"healt.sol\":885:894  complaint */\n      dup1\n        /* \"healt.sol\":885:902  complaint.patient */\n      0x01\n      add\n      0x00\n      swap1\n      sload\n      swap1\n      0x0100\n      exp\n      swap1\n      div\n      0xffffffffffffffffffffffffffffffffffffffff\n      and\n        /* \"healt.sol\":871:902  msg.sender != complaint.patient */\n      0xffffffffffffffffffffffffffffffffffffffff\n      and\n        /* \"healt.sol\":871:881  msg.sender */\n      caller\n        /* \"healt.sol\":871:902  msg.sender != complaint.patient */\n      0xffffffffffffffffffffffffffffffffffffffff\n      and\n      sub\n        /* \"healt.sol\":863:950  require(msg.sender != complaint.patient, \"Patient cannot reply to their own complaint\") */\n      tag_61\n      jumpi\n      mload(0x40)\n      0x08c379a000000000000000000000000000000000000000000000000000000000\n      dup2\n      mstore\n      0x04\n      add\n      tag_62\n      swap1\n      tag_63\n      jump\t// in\n    tag_62:\n      mload(0x40)\n      dup1\n      swap2\n      sub\n      swap1\n      revert\n    tag_61:\n        /* \"healt.sol\":989:995  _reply */\n      dup2\n        /* \"healt.sol\":971:980  complaint */\n      dup2\n        /* \"healt.sol\":971:986  complaint.reply */\n      0x03\n      add\n        /* \"healt.sol\":971:995  complaint.reply = _reply */\n      swap1\n      dup2\n      tag_64\n      swap2\n      swap1\n      tag_47\n      jump\t// in\n    tag_64:\n      pop\n        /* \"healt.sol\":1026:1030  true */\n      0x01\n        /* \"healt.sol\":1006:1015  complaint */\n      dup2\n        /* \"healt.sol\":1006:1023  complaint.replied */\n      0x04\n      add\n      0x00\n        /* \"healt.sol\":1006:1030  complaint.replied = true */\n      0x0100\n      exp\n      dup2\n      sload\n      dup2\n      0xff\n      mul\n      not\n      and\n      swap1\n      dup4\n      iszero\n      iszero\n      mul\n      or\n      swap1\n      sstore\n      pop\n        /* \"healt.sol\":1046:1066  Replied(_id, _reply) */\n      0xd512a8d27030ccb82b4698a62c3a271ccabbbd3004d3c779764f6b2a847168d7\n        /* \"healt.sol\":1054:1057  _id */\n      dup4\n        /* \"healt.sol\":1059:1065  _reply */\n      dup4\n        /* \"healt.sol\":1046:1066  Replied(_id, _reply) */\n      mload(0x40)\n      tag_65\n      swap3\n      swap2\n      swap1\n      tag_66\n      jump\t// in\n    tag_65:\n      mload(0x40)\n      dup1\n      swap2\n      sub\n      swap1\n      log1\n        /* \"healt.sol\":729:1074  {... */\n      pop\n        /* \"healt.sol\":664:1074  function replyToComplaint(uint _id, string memory _reply) public {... */\n      pop\n      pop\n      jump\t// out\n        /* \"healt.sol\":1082:1288  function getComplaint(uint _id) public view returns (string memory, string memory) {... */\n    tag_28:\n        /* \"healt.sol\":1135:1148  string memory */\n      0x60\n        /* \"healt.sol\":1150:1163  string memory */\n      dup1\n        /* \"healt.sol\":1176:1202  Complaint memory complaint */\n      0x00\n        /* \"healt.sol\":1205:1215  complaints */\n      dup1\n        /* \"healt.sol\":1216:1219  _id */\n      dup5\n        /* \"healt.sol\":1205:1220  complaints[_id] */\n      dup2\n      sload\n      dup2\n      lt\n      tag_68\n      jumpi\n      tag_69\n      tag_56\n      jump\t// in\n    tag_69:\n    tag_68:\n      swap1\n      0x00\n      mstore\n      keccak256(0x00, 0x20)\n      swap1\n      0x05\n      mul\n      add\n        /* \"healt.sol\":1176:1220  Complaint memory complaint = complaints[_id] */\n      mload(0x40)\n      dup1\n      0xa0\n      add\n      0x40\n      mstore\n      swap1\n      dup2\n      0x00\n      dup3\n      add\n      sload\n      dup2\n      mstore\n      0x20\n      add\n      0x01\n      dup3\n      add\n      0x00\n      swap1\n      sload\n      swap1\n      0x0100\n      exp\n      swap1\n      div\n      0xffffffffffffffffffffffffffffffffffffffff\n      and\n      0xffffffffffffffffffffffffffffffffffffffff\n      and\n      0xffffffffffffffffffffffffffffffffffffffff\n      and\n      dup2\n      mstore\n      0x20\n      add\n      0x02\n      dup3\n      add\n      dup1\n      sload\n      tag_71\n      swap1\n      tag_34\n      jump\t// in\n    tag_71:\n      dup1\n      0x1f\n      add\n      0x20\n      dup1\n      swap2\n      div\n      mul\n      0x20\n      add\n      mload(0x40)\n      swap1\n      dup2\n      add\n      0x40\n      mstore\n      dup1\n      swap3\n      swap2\n      swap1\n      dup2\n      dup2\n      mstore\n      0x20\n      add\n      dup3\n      dup1\n      sload\n      tag_72\n      swap1\n      tag_34\n      jump\t// in\n    tag_72:\n      dup1\n      iszero\n      tag_73\n      jumpi\n      dup1\n      0x1f\n      lt\n      tag_74\n      jumpi\n      0x0100\n      dup1\n      dup4\n      sload\n      div\n      mul\n      dup4\n      mstore\n      swap2\n      0x20\n      add\n      swap2\n      jump(tag_73)\n    tag_74:\n      dup3\n      add\n      swap2\n      swap1\n      0x00\n      mstore\n      keccak256(0x00, 0x20)\n      swap1\n    tag_75:\n      dup2\n      sload\n      dup2\n      mstore\n      swap1\n      0x01\n      add\n      swap1\n      0x20\n      add\n      dup1\n      dup4\n      gt\n      tag_75\n      jumpi\n      dup3\n      swap1\n      sub\n      0x1f\n      and\n      dup3\n      add\n      swap2\n    tag_73:\n      pop\n      pop\n      pop\n      pop\n      pop\n      dup2\n      mstore\n      0x20\n      add\n      0x03\n      dup3\n      add\n      dup1\n      sload\n      tag_76\n      swap1\n      tag_34\n      jump\t// in\n    tag_76:\n      dup1\n      0x1f\n      add\n      0x20\n      dup1\n      swap2\n      div\n      mul\n      0x20\n      add\n      mload(0x40)\n      swap1\n      dup2\n      add\n      0x40\n      mstore\n      dup1\n      swap3\n      swap2\n      swap1\n      dup2\n      dup2\n      mstore\n      0x20\n      add\n      dup3\n      dup1\n      sload\n      tag_77\n      swap1\n      tag_34\n      jump\t// in\n    tag_77:\n      dup1\n      iszero\n      tag_78\n      jumpi\n      dup1\n      0x1f\n      lt\n      tag_79\n      jumpi\n      0x0100\n      dup1\n      dup4\n      sload\n      div\n      mul\n      dup4\n      mstore\n      swap2\n      0x20\n      add\n      swap2\n      jump(tag_78)\n    tag_79:\n      dup3\n      add\n      swap2\n      swap1\n      0x00\n      mstore\n      keccak256(0x00, 0x20)\n      swap1\n    tag_80:\n      dup2\n      sload\n      dup2\n      mstore\n      swap1\n      0x01\n      add\n      swap1\n      0x20\n      add\n      dup1\n      dup4\n      gt\n      tag_80\n      jumpi\n      dup3\n      swap1\n      sub\n      0x1f\n      and\n      dup3\n      add\n      swap2\n    tag_78:\n      pop\n      pop\n      pop\n      pop\n      pop\n      dup2\n      mstore\n      0x20\n      add\n      0x04\n      dup3\n      add\n      0x00\n      swap1\n      sload\n      swap1\n      0x0100\n      exp\n      swap1\n      div\n      0xff\n      and\n      iszero\n      iszero\n      iszero\n      iszero\n      dup2\n      mstore\n      pop\n      pop\n      swap1\n      pop\n        /* \"healt.sol\":1239:1248  complaint */\n      dup1\n        /* \"healt.sol\":1239:1262  complaint.complaintText */\n      0x40\n      add\n      mload\n        /* \"healt.sol\":1264:1273  complaint */\n      dup2\n        /* \"healt.sol\":1264:1279  complaint.reply */\n      0x60\n      add\n      mload\n        /* \"healt.sol\":1231:1280  return (complaint.complaintText, complaint.reply) */\n      swap3\n      pop\n      swap3\n      pop\n      pop\n        /* \"healt.sol\":1082:1288  function getComplaint(uint _id) public view returns (string memory, string memory) {... */\n      swap2\n      pop\n      swap2\n      jump\t// out\n        /* \"#utility.yul\":7:84   */\n    tag_81:\n        /* \"#utility.yul\":44:51   */\n      0x00\n        /* \"#utility.yul\":73:78   */\n      dup2\n        /* \"#utility.yul\":62:78   */\n      swap1\n      pop\n        /* \"#utility.yul\":7:84   */\n      swap2\n      swap1\n      pop\n      jump\t// out\n        /* \"#utility.yul\":90:208   */\n    tag_82:\n        /* \"#utility.yul\":177:201   */\n      tag_131\n        /* \"#utility.yul\":195:200   */\n      dup2\n        /* \"#utility.yul\":177:201   */\n      tag_81\n      jump\t// in\n    tag_131:\n        /* \"#utility.yul\":172:175   */\n      dup3\n        /* \"#utility.yul\":165:202   */\n      mstore\n        /* \"#utility.yul\":90:208   */\n      pop\n      pop\n      jump\t// out\n        /* \"#utility.yul\":214:436   */\n    tag_11:\n        /* \"#utility.yul\":307:311   */\n      0x00\n        /* \"#utility.yul\":345:347   */\n      0x20\n        /* \"#utility.yul\":334:343   */\n      dup3\n        /* \"#utility.yul\":330:348   */\n      add\n        /* \"#utility.yul\":322:348   */\n      swap1\n      pop\n        /* \"#utility.yul\":358:429   */\n      tag_133\n        /* \"#utility.yul\":426:427   */\n      0x00\n        /* \"#utility.yul\":415:424   */\n      dup4\n        /* \"#utility.yul\":411:428   */\n      add\n        /* \"#utility.yul\":402:408   */\n      dup5\n        /* \"#utility.yul\":358:429   */\n      tag_82\n      jump\t// in\n    tag_133:\n        /* \"#utility.yul\":214:436   */\n      swap3\n      swap2\n      pop\n      pop\n      jump\t// out\n        /* \"#utility.yul\":442:517   */\n    tag_83:\n        /* \"#utility.yul\":475:481   */\n      0x00\n        /* \"#utility.yul\":508:510   */\n      0x40\n        /* \"#utility.yul\":502:511   */\n      mload\n        /* \"#utility.yul\":492:511   */\n      swap1\n      pop\n        /* \"#utility.yul\":442:517   */\n      swap1\n      jump\t// out\n        /* \"#utility.yul\":523:640   */\n    tag_84:\n        /* \"#utility.yul\":632:633   */\n      0x00\n        /* \"#utility.yul\":629:630   */\n      dup1\n        /* \"#utility.yul\":622:634   */\n      revert\n        /* \"#utility.yul\":646:763   */\n    tag_85:\n        /* \"#utility.yul\":755:756   */\n      0x00\n        /* \"#utility.yul\":752:753   */\n      dup1\n        /* \"#utility.yul\":745:757   */\n      revert\n        /* \"#utility.yul\":769:891   */\n    tag_86:\n        /* \"#utility.yul\":842:866   */\n      tag_138\n        /* \"#utility.yul\":860:865   */\n      dup2\n        /* \"#utility.yul\":842:866   */\n      tag_81\n      jump\t// in\n    tag_138:\n        /* \"#utility.yul\":835:840   */\n      dup2\n        /* \"#utility.yul\":832:867   */\n      eq\n        /* \"#utility.yul\":822:885   */\n      tag_139\n      jumpi\n        /* \"#utility.yul\":881:882   */\n      0x00\n        /* \"#utility.yul\":878:879   */\n      dup1\n        /* \"#utility.yul\":871:883   */\n      revert\n        /* \"#utility.yul\":822:885   */\n    tag_139:\n        /* \"#utility.yul\":769:891   */\n      pop\n      jump\t// out\n        /* \"#utility.yul\":897:1036   */\n    tag_87:\n        /* \"#utility.yul\":943:948   */\n      0x00\n        /* \"#utility.yul\":981:987   */\n      dup2\n        /* \"#utility.yul\":968:988   */\n      calldataload\n        /* \"#utility.yul\":959:988   */\n      swap1\n      pop\n        /* \"#utility.yul\":997:1030   */\n      tag_141\n        /* \"#utility.yul\":1024:1029   */\n      dup2\n        /* \"#utility.yul\":997:1030   */\n      tag_86\n      jump\t// in\n    tag_141:\n        /* \"#utility.yul\":897:1036   */\n      swap3\n      swap2\n      pop\n      pop\n      jump\t// out\n        /* \"#utility.yul\":1042:1371   */\n    tag_14:\n        /* \"#utility.yul\":1101:1107   */\n      0x00\n        /* \"#utility.yul\":1150:1152   */\n      0x20\n        /* \"#utility.yul\":1138:1147   */\n      dup3\n        /* \"#utility.yul\":1129:1136   */\n      dup5\n        /* \"#utility.yul\":1125:1148   */\n      sub\n        /* \"#utility.yul\":1121:1153   */\n      slt\n        /* \"#utility.yul\":1118:1237   */\n      iszero\n      tag_143\n      jumpi\n        /* \"#utility.yul\":1156:1235   */\n      tag_144\n      tag_84\n      jump\t// in\n    tag_144:\n        /* \"#utility.yul\":1118:1237   */\n    tag_143:\n        /* \"#utility.yul\":1276:1277   */\n      0x00\n        /* \"#utility.yul\":1301:1354   */\n      tag_145\n        /* \"#utility.yul\":1346:1353   */\n      dup5\n        /* \"#utility.yul\":1337:1343   */\n      dup3\n        /* \"#utility.yul\":1326:1335   */\n      dup6\n        /* \"#utility.yul\":1322:1344   */\n      add\n        /* \"#utility.yul\":1301:1354   */\n      tag_87\n      jump\t// in\n    tag_145:\n        /* \"#utility.yul\":1291:1354   */\n      swap2\n      pop\n        /* \"#utility.yul\":1247:1364   */\n      pop\n        /* \"#utility.yul\":1042:1371   */\n      swap3\n      swap2\n      pop\n      pop\n      jump\t// out\n        /* \"#utility.yul\":1377:1503   */\n    tag_88:\n        /* \"#utility.yul\":1414:1421   */\n      0x00\n        /* \"#utility.yul\":1454:1496   */\n      0xffffffffffffffffffffffffffffffffffffffff\n        /* \"#utility.yul\":1447:1452   */\n      dup3\n        /* \"#utility.yul\":1443:1497   */\n      and\n        /* \"#utility.yul\":1432:1497   */\n      swap1\n      pop\n        /* \"#utility.yul\":1377:1503   */\n      swap2\n      swap1\n      pop\n      jump\t// out\n        /* \"#utility.yul\":1509:1605   */\n    tag_89:\n        /* \"#utility.yul\":1546:1553   */\n      0x00\n        /* \"#utility.yul\":1575:1599   */\n      tag_148\n        /* \"#utility.yul\":1593:1598   */\n      dup3\n        /* \"#utility.yul\":1575:1599   */\n      tag_88\n      jump\t// in\n    tag_148:\n        /* \"#utility.yul\":1564:1599   */\n      swap1\n      pop\n        /* \"#utility.yul\":1509:1605   */\n      swap2\n      swap1\n      pop\n      jump\t// out\n        /* \"#utility.yul\":1611:1729   */\n    tag_90:\n        /* \"#utility.yul\":1698:1722   */\n      tag_150\n        /* \"#utility.yul\":1716:1721   */\n      dup2\n        /* \"#utility.yul\":1698:1722   */\n      tag_89\n      jump\t// in\n    tag_150:\n        /* \"#utility.yul\":1693:1696   */\n      dup3\n        /* \"#utility.yul\":1686:1723   */\n      mstore\n        /* \"#utility.yul\":1611:1729   */\n      pop\n      pop\n      jump\t// out\n        /* \"#utility.yul\":1735:1834   */\n    tag_91:\n        /* \"#utility.yul\":1787:1793   */\n      0x00\n        /* \"#utility.yul\":1821:1826   */\n      dup2\n        /* \"#utility.yul\":1815:1827   */\n      mload\n        /* \"#utility.yul\":1805:1827   */\n      swap1\n      pop\n        /* \"#utility.yul\":1735:1834   */\n      swap2\n      swap1\n      pop\n      jump\t// out\n        /* \"#utility.yul\":1840:2009   */\n    tag_92:\n        /* \"#utility.yul\":1924:1935   */\n      0x00\n        /* \"#utility.yul\":1958:1964   */\n      dup3\n        /* \"#utility.yul\":1953:1956   */\n      dup3\n        /* \"#utility.yul\":1946:1965   */\n      mstore\n        /* \"#utility.yul\":1998:2002   */\n      0x20\n        /* \"#utility.yul\":1993:1996   */\n      dup3\n        /* \"#utility.yul\":1989:2003   */\n      add\n        /* \"#utility.yul\":1974:2003   */\n      swap1\n      pop\n        /* \"#utility.yul\":1840:2009   */\n      swap3\n      swap2\n      pop\n      pop\n      jump\t// out\n        /* \"#utility.yul\":2015:2261   */\n    tag_93:\n        /* \"#utility.yul\":2096:2097   */\n      0x00\n        /* \"#utility.yul\":2106:2219   */\n    tag_154:\n        /* \"#utility.yul\":2120:2126   */\n      dup4\n        /* \"#utility.yul\":2117:2118   */\n      dup2\n        /* \"#utility.yul\":2114:2127   */\n      lt\n        /* \"#utility.yul\":2106:2219   */\n      iszero\n      tag_156\n      jumpi\n        /* \"#utility.yul\":2205:2206   */\n      dup1\n        /* \"#utility.yul\":2200:2203   */\n      dup3\n        /* \"#utility.yul\":2196:2207   */\n      add\n        /* \"#utility.yul\":2190:2208   */\n      mload\n        /* \"#utility.yul\":2186:2187   */\n      dup2\n        /* \"#utility.yul\":2181:2184   */\n      dup5\n        /* \"#utility.yul\":2177:2188   */\n      add\n        /* \"#utility.yul\":2170:2209   */\n      mstore\n        /* \"#utility.yul\":2142:2144   */\n      0x20\n        /* \"#utility.yul\":2139:2140   */\n      dup2\n        /* \"#utility.yul\":2135:2145   */\n      add\n        /* \"#utility.yul\":2130:2145   */\n      swap1\n      pop\n        /* \"#utility.yul\":2106:2219   */\n      jump(tag_154)\n    tag_156:\n        /* \"#utility.yul\":2253:2254   */\n      0x00\n        /* \"#utility.yul\":2244:2250   */\n      dup5\n        /* \"#utility.yul\":2239:2242   */\n      dup5\n        /* \"#utility.yul\":2235:2251   */\n      add\n        /* \"#utility.yul\":2228:2255   */\n      mstore\n        /* \"#utility.yul\":2077:2261   */\n      pop\n        /* \"#utility.yul\":2015:2261   */\n      pop\n      pop\n      pop\n      jump\t// out\n        /* \"#utility.yul\":2267:2369   */\n    tag_94:\n        /* \"#utility.yul\":2308:2314   */\n      0x00\n        /* \"#utility.yul\":2359:2361   */\n      0x1f\n        /* \"#utility.yul\":2355:2362   */\n      not\n        /* \"#utility.yul\":2350:2352   */\n      0x1f\n        /* \"#utility.yul\":2343:2348   */\n      dup4\n        /* \"#utility.yul\":2339:2353   */\n      add\n        /* \"#utility.yul\":2335:2363   */\n      and\n        /* \"#utility.yul\":2325:2363   */\n      swap1\n      pop\n        /* \"#utility.yul\":2267:2369   */\n      swap2\n      swap1\n      pop\n      jump\t// out\n        /* \"#utility.yul\":2375:2752   */\n    tag_95:\n        /* \"#utility.yul\":2463:2466   */\n      0x00\n        /* \"#utility.yul\":2491:2530   */\n      tag_159\n        /* \"#utility.yul\":2524:2529   */\n      dup3\n        /* \"#utility.yul\":2491:2530   */\n      tag_91\n      jump\t// in\n    tag_159:\n        /* \"#utility.yul\":2546:2617   */\n      tag_160\n        /* \"#utility.yul\":2610:2616   */\n      dup2\n        /* \"#utility.yul\":2605:2608   */\n      dup6\n        /* \"#utility.yul\":2546:2617   */\n      tag_92\n      jump\t// in\n    tag_160:\n        /* \"#utility.yul\":2539:2617   */\n      swap4\n      pop\n        /* \"#utility.yul\":2626:2691   */\n      tag_161\n        /* \"#utility.yul\":2684:2690   */\n      dup2\n        /* \"#utility.yul\":2679:2682   */\n      dup6\n        /* \"#utility.yul\":2672:2676   */\n      0x20\n        /* \"#utility.yul\":2665:2670   */\n      dup7\n        /* \"#utility.yul\":2661:2677   */\n      add\n        /* \"#utility.yul\":2626:2691   */\n      tag_93\n      jump\t// in\n    tag_161:\n        /* \"#utility.yul\":2716:2745   */\n      tag_162\n        /* \"#utility.yul\":2738:2744   */\n      dup2\n        /* \"#utility.yul\":2716:2745   */\n      tag_94\n      jump\t// in\n    tag_162:\n        /* \"#utility.yul\":2711:2714   */\n      dup5\n        /* \"#utility.yul\":2707:2746   */\n      add\n        /* \"#utility.yul\":2700:2746   */\n      swap2\n      pop\n        /* \"#utility.yul\":2467:2752   */\n      pop\n        /* \"#utility.yul\":2375:2752   */\n      swap3\n      swap2\n      pop\n      pop\n      jump\t// out\n        /* \"#utility.yul\":2758:2848   */\n    tag_96:\n        /* \"#utility.yul\":2792:2799   */\n      0x00\n        /* \"#utility.yul\":2835:2840   */\n      dup2\n        /* \"#utility.yul\":2828:2841   */\n      iszero\n        /* \"#utility.yul\":2821:2842   */\n      iszero\n        /* \"#utility.yul\":2810:2842   */\n      swap1\n      pop\n        /* \"#utility.yul\":2758:2848   */\n      swap2\n      swap1\n      pop\n      jump\t// out\n        /* \"#utility.yul\":2854:2963   */\n    tag_97:\n        /* \"#utility.yul\":2935:2956   */\n      tag_165\n        /* \"#utility.yul\":2950:2955   */\n      dup2\n        /* \"#utility.yul\":2935:2956   */\n      tag_96\n      jump\t// in\n    tag_165:\n        /* \"#utility.yul\":2930:2933   */\n      dup3\n        /* \"#utility.yul\":2923:2957   */\n      mstore\n        /* \"#utility.yul\":2854:2963   */\n      pop\n      pop\n      jump\t// out\n        /* \"#utility.yul\":2969:3803   */\n    tag_17:\n        /* \"#utility.yul\":3208:3212   */\n      0x00\n        /* \"#utility.yul\":3246:3249   */\n      0xa0\n        /* \"#utility.yul\":3235:3244   */\n      dup3\n        /* \"#utility.yul\":3231:3250   */\n      add\n        /* \"#utility.yul\":3223:3250   */\n      swap1\n      pop\n        /* \"#utility.yul\":3260:3331   */\n      tag_167\n        /* \"#utility.yul\":3328:3329   */\n      0x00\n        /* \"#utility.yul\":3317:3326   */\n      dup4\n        /* \"#utility.yul\":3313:3330   */\n      add\n        /* \"#utility.yul\":3304:3310   */\n      dup9\n        /* \"#utility.yul\":3260:3331   */\n      tag_82\n      jump\t// in\n    tag_167:\n        /* \"#utility.yul\":3341:3413   */\n      tag_168\n        /* \"#utility.yul\":3409:3411   */\n      0x20\n        /* \"#utility.yul\":3398:3407   */\n      dup4\n        /* \"#utility.yul\":3394:3412   */\n      add\n        /* \"#utility.yul\":3385:3391   */\n      dup8\n        /* \"#utility.yul\":3341:3413   */\n      tag_90\n      jump\t// in\n    tag_168:\n        /* \"#utility.yul\":3460:3469   */\n      dup2\n        /* \"#utility.yul\":3454:3458   */\n      dup2\n        /* \"#utility.yul\":3450:3470   */\n      sub\n        /* \"#utility.yul\":3445:3447   */\n      0x40\n        /* \"#utility.yul\":3434:3443   */\n      dup4\n        /* \"#utility.yul\":3430:3448   */\n      add\n        /* \"#utility.yul\":3423:3471   */\n      mstore\n        /* \"#utility.yul\":3488:3566   */\n      tag_169\n        /* \"#utility.yul\":3561:3565   */\n      dup2\n        /* \"#utility.yul\":3552:3558   */\n      dup7\n        /* \"#utility.yul\":3488:3566   */\n      tag_95\n      jump\t// in\n    tag_169:\n        /* \"#utility.yul\":3480:3566   */\n      swap1\n      pop\n        /* \"#utility.yul\":3613:3622   */\n      dup2\n        /* \"#utility.yul\":3607:3611   */\n      dup2\n        /* \"#utility.yul\":3603:3623   */\n      sub\n        /* \"#utility.yul\":3598:3600   */\n      0x60\n        /* \"#utility.yul\":3587:3596   */\n      dup4\n        /* \"#utility.yul\":3583:3601   */\n      add\n        /* \"#utility.yul\":3576:3624   */\n      mstore\n        /* \"#utility.yul\":3641:3719   */\n      tag_170\n        /* \"#utility.yul\":3714:3718   */\n      dup2\n        /* \"#utility.yul\":3705:3711   */\n      dup6\n        /* \"#utility.yul\":3641:3719   */\n      tag_95\n      jump\t// in\n    tag_170:\n        /* \"#utility.yul\":3633:3719   */\n      swap1\n      pop\n        /* \"#utility.yul\":3729:3796   */\n      tag_171\n        /* \"#utility.yul\":3791:3794   */\n      0x80\n        /* \"#utility.yul\":3780:3789   */\n      dup4\n        /* \"#utility.yul\":3776:3795   */\n      add\n        /* \"#utility.yul\":3767:3773   */\n      dup5\n        /* \"#utility.yul\":3729:3796   */\n      tag_97\n      jump\t// in\n    tag_171:\n        /* \"#utility.yul\":2969:3803   */\n      swap7\n      swap6\n      pop\n      pop\n      pop\n      pop\n      pop\n      pop\n      jump\t// out\n        /* \"#utility.yul\":3809:3926   */\n    tag_98:\n        /* \"#utility.yul\":3918:3919   */\n      0x00\n        /* \"#utility.yul\":3915:3916   */\n      dup1\n        /* \"#utility.yul\":3908:3920   */\n      revert\n        /* \"#utility.yul\":3932:4049   */\n    tag_99:\n        /* \"#utility.yul\":4041:4042   */\n      0x00\n        /* \"#utility.yul\":4038:4039   */\n      dup1\n        /* \"#utility.yul\":4031:4043   */\n      revert\n        /* \"#utility.yul\":4055:4235   */\n    tag_100:\n        /* \"#utility.yul\":4103:4180   */\n      0x4e487b7100000000000000000000000000000000000000000000000000000000\n        /* \"#utility.yul\":4100:4101   */\n      0x00\n        /* \"#utility.yul\":4093:4181   */\n      mstore\n        /* \"#utility.yul\":4200:4204   */\n      0x41\n        /* \"#utility.yul\":4197:4198   */\n      0x04\n        /* \"#utility.yul\":4190:4205   */\n      mstore\n        /* \"#utility.yul\":4224:4228   */\n      0x24\n        /* \"#utility.yul\":4221:4222   */\n      0x00\n        /* \"#utility.yul\":4214:4229   */\n      revert\n        /* \"#utility.yul\":4241:4522   */\n    tag_101:\n        /* \"#utility.yul\":4324:4351   */\n      tag_176\n        /* \"#utility.yul\":4346:4350   */\n      dup3\n        /* \"#utility.yul\":4324:4351   */\n      tag_94\n      jump\t// in\n    tag_176:\n        /* \"#utility.yul\":4316:4322   */\n      dup2\n        /* \"#utility.yul\":4312:4352   */\n      add\n        /* \"#utility.yul\":4454:4460   */\n      dup2\n        /* \"#utility.yul\":4442:4452   */\n      dup2\n        /* \"#utility.yul\":4439:4461   */\n      lt\n        /* \"#utility.yul\":4418:4436   */\n      0xffffffffffffffff\n        /* \"#utility.yul\":4406:4416   */\n      dup3\n        /* \"#utility.yul\":4403:4437   */\n      gt\n        /* \"#utility.yul\":4400:4462   */\n      or\n        /* \"#utility.yul\":4397:4485   */\n      iszero\n      tag_177\n      jumpi\n        /* \"#utility.yul\":4465:4483   */\n      tag_178\n      tag_100\n      jump\t// in\n    tag_178:\n        /* \"#utility.yul\":4397:4485   */\n    tag_177:\n        /* \"#utility.yul\":4505:4515   */\n      dup1\n        /* \"#utility.yul\":4501:4503   */\n      0x40\n        /* \"#utility.yul\":4494:4516   */\n      mstore\n        /* \"#utility.yul\":4284:4522   */\n      pop\n        /* \"#utility.yul\":4241:4522   */\n      pop\n      pop\n      jump\t// out\n        /* \"#utility.yul\":4528:4657   */\n    tag_102:\n        /* \"#utility.yul\":4562:4568   */\n      0x00\n        /* \"#utility.yul\":4589:4609   */\n      tag_180\n      tag_83\n      jump\t// in\n    tag_180:\n        /* \"#utility.yul\":4579:4609   */\n      swap1\n      pop\n        /* \"#utility.yul\":4618:4651   */\n      tag_181\n        /* \"#utility.yul\":4646:4650   */\n      dup3\n        /* \"#utility.yul\":4638:4644   */\n      dup3\n        /* \"#utility.yul\":4618:4651   */\n      tag_101\n      jump\t// in\n    tag_181:\n        /* \"#utility.yul\":4528:4657   */\n      swap2\n      swap1\n      pop\n      jump\t// out\n        /* \"#utility.yul\":4663:4971   */\n    tag_103:\n        /* \"#utility.yul\":4725:4729   */\n      0x00\n        /* \"#utility.yul\":4815:4833   */\n      0xffffffffffffffff\n        /* \"#utility.yul\":4807:4813   */\n      dup3\n        /* \"#utility.yul\":4804:4834   */\n      gt\n        /* \"#utility.yul\":4801:4857   */\n      iszero\n      tag_183\n      jumpi\n        /* \"#utility.yul\":4837:4855   */\n      tag_184\n      tag_100\n      jump\t// in\n    tag_184:\n        /* \"#utility.yul\":4801:4857   */\n    tag_183:\n        /* \"#utility.yul\":4875:4904   */\n      tag_185\n        /* \"#utility.yul\":4897:4903   */\n      dup3\n        /* \"#utility.yul\":4875:4904   */\n      tag_94\n      jump\t// in\n    tag_185:\n        /* \"#utility.yul\":4867:4904   */\n      swap1\n      pop\n        /* \"#utility.yul\":4959:4963   */\n      0x20\n        /* \"#utility.yul\":4953:4957   */\n      dup2\n        /* \"#utility.yul\":4949:4964   */\n      add\n        /* \"#utility.yul\":4941:4964   */\n      swap1\n      pop\n        /* \"#utility.yul\":4663:4971   */\n      swap2\n      swap1\n      pop\n      jump\t// out\n        /* \"#utility.yul\":4977:5123   */\n    tag_104:\n        /* \"#utility.yul\":5074:5080   */\n      dup3\n        /* \"#utility.yul\":5069:5072   */\n      dup2\n        /* \"#utility.yul\":5064:5067   */\n      dup4\n        /* \"#utility.yul\":5051:5081   */\n      calldatacopy\n        /* \"#utility.yul\":5115:5116   */\n      0x00\n        /* \"#utility.yul\":5106:5112   */\n      dup4\n        /* \"#utility.yul\":5101:5104   */\n      dup4\n        /* \"#utility.yul\":5097:5113   */\n      add\n        /* \"#utility.yul\":5090:5117   */\n      mstore\n        /* \"#utility.yul\":4977:5123   */\n      pop\n      pop\n      pop\n      jump\t// out\n        /* \"#utility.yul\":5129:5554   */\n    tag_105:\n        /* \"#utility.yul\":5207:5212   */\n      0x00\n        /* \"#utility.yul\":5232:5298   */\n      tag_188\n        /* \"#utility.yul\":5248:5297   */\n      tag_189\n        /* \"#utility.yul\":5290:5296   */\n      dup5\n        /* \"#utility.yul\":5248:5297   */\n      tag_103\n      jump\t// in\n    tag_189:\n        /* \"#utility.yul\":5232:5298   */\n      tag_102\n      jump\t// in\n    tag_188:\n        /* \"#utility.yul\":5223:5298   */\n      swap1\n      pop\n        /* \"#utility.yul\":5321:5327   */\n      dup3\n        /* \"#utility.yul\":5314:5319   */\n      dup2\n        /* \"#utility.yul\":5307:5328   */\n      mstore\n        /* \"#utility.yul\":5359:5363   */\n      0x20\n        /* \"#utility.yul\":5352:5357   */\n      dup2\n        /* \"#utility.yul\":5348:5364   */\n      add\n        /* \"#utility.yul\":5397:5400   */\n      dup5\n        /* \"#utility.yul\":5388:5394   */\n      dup5\n        /* \"#utility.yul\":5383:5386   */\n      dup5\n        /* \"#utility.yul\":5379:5395   */\n      add\n        /* \"#utility.yul\":5376:5401   */\n      gt\n        /* \"#utility.yul\":5373:5485   */\n      iszero\n      tag_190\n      jumpi\n        /* \"#utility.yul\":5404:5483   */\n      tag_191\n      tag_99\n      jump\t// in\n    tag_191:\n        /* \"#utility.yul\":5373:5485   */\n    tag_190:\n        /* \"#utility.yul\":5494:5548   */\n      tag_192\n        /* \"#utility.yul\":5541:5547   */\n      dup5\n        /* \"#utility.yul\":5536:5539   */\n      dup3\n        /* \"#utility.yul\":5531:5534   */\n      dup6\n        /* \"#utility.yul\":5494:5548   */\n      tag_104\n      jump\t// in\n    tag_192:\n        /* \"#utility.yul\":5213:5554   */\n      pop\n        /* \"#utility.yul\":5129:5554   */\n      swap4\n      swap3\n      pop\n      pop\n      pop\n      jump\t// out\n        /* \"#utility.yul\":5574:5914   */\n    tag_106:\n        /* \"#utility.yul\":5630:5635   */\n      0x00\n        /* \"#utility.yul\":5679:5682   */\n      dup3\n        /* \"#utility.yul\":5672:5676   */\n      0x1f\n        /* \"#utility.yul\":5664:5670   */\n      dup4\n        /* \"#utility.yul\":5660:5677   */\n      add\n        /* \"#utility.yul\":5656:5683   */\n      slt\n        /* \"#utility.yul\":5646:5768   */\n      tag_194\n      jumpi\n        /* \"#utility.yul\":5687:5766   */\n      tag_195\n      tag_98\n      jump\t// in\n    tag_195:\n        /* \"#utility.yul\":5646:5768   */\n    tag_194:\n        /* \"#utility.yul\":5804:5810   */\n      dup2\n        /* \"#utility.yul\":5791:5811   */\n      calldataload\n        /* \"#utility.yul\":5829:5908   */\n      tag_196\n        /* \"#utility.yul\":5904:5907   */\n      dup5\n        /* \"#utility.yul\":5896:5902   */\n      dup3\n        /* \"#utility.yul\":5889:5893   */\n      0x20\n        /* \"#utility.yul\":5881:5887   */\n      dup7\n        /* \"#utility.yul\":5877:5894   */\n      add\n        /* \"#utility.yul\":5829:5908   */\n      tag_105\n      jump\t// in\n    tag_196:\n        /* \"#utility.yul\":5820:5908   */\n      swap2\n      pop\n        /* \"#utility.yul\":5636:5914   */\n      pop\n        /* \"#utility.yul\":5574:5914   */\n      swap3\n      swap2\n      pop\n      pop\n      jump\t// out\n        /* \"#utility.yul\":5920:6429   */\n    tag_20:\n        /* \"#utility.yul\":5989:5995   */\n      0x00\n        /* \"#utility.yul\":6038:6040   */\n      0x20\n        /* \"#utility.yul\":6026:6035   */\n      dup3\n        /* \"#utility.yul\":6017:6024   */\n      dup5\n        /* \"#utility.yul\":6013:6036   */\n      sub\n        /* \"#utility.yul\":6009:6041   */\n      slt\n        /* \"#utility.yul\":6006:6125   */\n      iszero\n      tag_198\n      jumpi\n        /* \"#utility.yul\":6044:6123   */\n      tag_199\n      tag_84\n      jump\t// in\n    tag_199:\n        /* \"#utility.yul\":6006:6125   */\n    tag_198:\n        /* \"#utility.yul\":6192:6193   */\n      0x00\n        /* \"#utility.yul\":6181:6190   */\n      dup3\n        /* \"#utility.yul\":6177:6194   */\n      add\n        /* \"#utility.yul\":6164:6195   */\n      calldataload\n        /* \"#utility.yul\":6222:6240   */\n      0xffffffffffffffff\n        /* \"#utility.yul\":6214:6220   */\n      dup2\n        /* \"#utility.yul\":6211:6241   */\n      gt\n        /* \"#utility.yul\":6208:6325   */\n      iszero\n      tag_200\n      jumpi\n        /* \"#utility.yul\":6244:6323   */\n      tag_201\n      tag_85\n      jump\t// in\n    tag_201:\n        /* \"#utility.yul\":6208:6325   */\n    tag_200:\n        /* \"#utility.yul\":6349:6412   */\n      tag_202\n        /* \"#utility.yul\":6404:6411   */\n      dup5\n        /* \"#utility.yul\":6395:6401   */\n      dup3\n        /* \"#utility.yul\":6384:6393   */\n      dup6\n        /* \"#utility.yul\":6380:6402   */\n      add\n        /* \"#utility.yul\":6349:6412   */\n      tag_106\n      jump\t// in\n    tag_202:\n        /* \"#utility.yul\":6339:6412   */\n      swap2\n      pop\n        /* \"#utility.yul\":6135:6422   */\n      pop\n        /* \"#utility.yul\":5920:6429   */\n      swap3\n      swap2\n      pop\n      pop\n      jump\t// out\n        /* \"#utility.yul\":6435:7089   */\n    tag_24:\n        /* \"#utility.yul\":6513:6519   */\n      0x00\n        /* \"#utility.yul\":6521:6527   */\n      dup1\n        /* \"#utility.yul\":6570:6572   */\n      0x40\n        /* \"#utility.yul\":6558:6567   */\n      dup4\n        /* \"#utility.yul\":6549:6556   */\n      dup6\n        /* \"#utility.yul\":6545:6568   */\n      sub\n        /* \"#utility.yul\":6541:6573   */\n      slt\n        /* \"#utility.yul\":6538:6657   */\n      iszero\n      tag_204\n      jumpi\n        /* \"#utility.yul\":6576:6655   */\n      tag_205\n      tag_84\n      jump\t// in\n    tag_205:\n        /* \"#utility.yul\":6538:6657   */\n    tag_204:\n        /* \"#utility.yul\":6696:6697   */\n      0x00\n        /* \"#utility.yul\":6721:6774   */\n      tag_206\n        /* \"#utility.yul\":6766:6773   */\n      dup6\n        /* \"#utility.yul\":6757:6763   */\n      dup3\n        /* \"#utility.yul\":6746:6755   */\n      dup7\n        /* \"#utility.yul\":6742:6764   */\n      add\n        /* \"#utility.yul\":6721:6774   */\n      tag_87\n      jump\t// in\n    tag_206:\n        /* \"#utility.yul\":6711:6774   */\n      swap3\n      pop\n        /* \"#utility.yul\":6667:6784   */\n      pop\n        /* \"#utility.yul\":6851:6853   */\n      0x20\n        /* \"#utility.yul\":6840:6849   */\n      dup4\n        /* \"#utility.yul\":6836:6854   */\n      add\n        /* \"#utility.yul\":6823:6855   */\n      calldataload\n        /* \"#utility.yul\":6882:6900   */\n      0xffffffffffffffff\n        /* \"#utility.yul\":6874:6880   */\n      dup2\n        /* \"#utility.yul\":6871:6901   */\n      gt\n        /* \"#utility.yul\":6868:6985   */\n      iszero\n      tag_207\n      jumpi\n        /* \"#utility.yul\":6904:6983   */\n      tag_208\n      tag_85\n      jump\t// in\n    tag_208:\n        /* \"#utility.yul\":6868:6985   */\n    tag_207:\n        /* \"#utility.yul\":7009:7072   */\n      tag_209\n        /* \"#utility.yul\":7064:7071   */\n      dup6\n        /* \"#utility.yul\":7055:7061   */\n      dup3\n        /* \"#utility.yul\":7044:7053   */\n      dup7\n        /* \"#utility.yul\":7040:7062   */\n      add\n        /* \"#utility.yul\":7009:7072   */\n      tag_106\n      jump\t// in\n    tag_209:\n        /* \"#utility.yul\":6999:7072   */\n      swap2\n      pop\n        /* \"#utility.yul\":6794:7082   */\n      pop\n        /* \"#utility.yul\":6435:7089   */\n      swap3\n      pop\n      swap3\n      swap1\n      pop\n      jump\t// out\n        /* \"#utility.yul\":7095:7609   */\n    tag_30:\n        /* \"#utility.yul\":7256:7260   */\n      0x00\n        /* \"#utility.yul\":7294:7296   */\n      0x40\n        /* \"#utility.yul\":7283:7292   */\n      dup3\n        /* \"#utility.yul\":7279:7297   */\n      add\n        /* \"#utility.yul\":7271:7297   */\n      swap1\n      pop\n        /* \"#utility.yul\":7343:7352   */\n      dup2\n        /* \"#utility.yul\":7337:7341   */\n      dup2\n        /* \"#utility.yul\":7333:7353   */\n      sub\n        /* \"#utility.yul\":7329:7330   */\n      0x00\n        /* \"#utility.yul\":7318:7327   */\n      dup4\n        /* \"#utility.yul\":7314:7331   */\n      add\n        /* \"#utility.yul\":7307:7354   */\n      mstore\n        /* \"#utility.yul\":7371:7449   */\n      tag_211\n        /* \"#utility.yul\":7444:7448   */\n      dup2\n        /* \"#utility.yul\":7435:7441   */\n      dup6\n        /* \"#utility.yul\":7371:7449   */\n      tag_95\n      jump\t// in\n    tag_211:\n        /* \"#utility.yul\":7363:7449   */\n      swap1\n      pop\n        /* \"#utility.yul\":7496:7505   */\n      dup2\n        /* \"#utility.yul\":7490:7494   */\n      dup2\n        /* \"#utility.yul\":7486:7506   */\n      sub\n        /* \"#utility.yul\":7481:7483   */\n      0x20\n        /* \"#utility.yul\":7470:7479   */\n      dup4\n        /* \"#utility.yul\":7466:7484   */\n      add\n        /* \"#utility.yul\":7459:7507   */\n      mstore\n        /* \"#utility.yul\":7524:7602   */\n      tag_212\n        /* \"#utility.yul\":7597:7601   */\n      dup2\n        /* \"#utility.yul\":7588:7594   */\n      dup5\n        /* \"#utility.yul\":7524:7602   */\n      tag_95\n      jump\t// in\n    tag_212:\n        /* \"#utility.yul\":7516:7602   */\n      swap1\n      pop\n        /* \"#utility.yul\":7095:7609   */\n      swap4\n      swap3\n      pop\n      pop\n      pop\n      jump\t// out\n        /* \"#utility.yul\":7615:7795   */\n    tag_107:\n        /* \"#utility.yul\":7663:7740   */\n      0x4e487b7100000000000000000000000000000000000000000000000000000000\n        /* \"#utility.yul\":7660:7661   */\n      0x00\n        /* \"#utility.yul\":7653:7741   */\n      mstore\n        /* \"#utility.yul\":7760:7764   */\n      0x22\n        /* \"#utility.yul\":7757:7758   */\n      0x04\n        /* \"#utility.yul\":7750:7765   */\n      mstore\n        /* \"#utility.yul\":7784:7788   */\n      0x24\n        /* \"#utility.yul\":7781:7782   */\n      0x00\n        /* \"#utility.yul\":7774:7789   */\n      revert\n        /* \"#utility.yul\":7801:8121   */\n    tag_34:\n        /* \"#utility.yul\":7845:7851   */\n      0x00\n        /* \"#utility.yul\":7882:7883   */\n      0x02\n        /* \"#utility.yul\":7876:7880   */\n      dup3\n        /* \"#utility.yul\":7872:7884   */\n      div\n        /* \"#utility.yul\":7862:7884   */\n      swap1\n      pop\n        /* \"#utility.yul\":7929:7930   */\n      0x01\n        /* \"#utility.yul\":7923:7927   */\n      dup3\n        /* \"#utility.yul\":7919:7931   */\n      and\n        /* \"#utility.yul\":7950:7968   */\n      dup1\n        /* \"#utility.yul\":7940:8021   */\n      tag_215\n      jumpi\n        /* \"#utility.yul\":8006:8010   */\n      0x7f\n        /* \"#utility.yul\":7998:8004   */\n      dup3\n        /* \"#utility.yul\":7994:8011   */\n      and\n        /* \"#utility.yul\":7984:8011   */\n      swap2\n      pop\n        /* \"#utility.yul\":7940:8021   */\n    tag_215:\n        /* \"#utility.yul\":8068:8070   */\n      0x20\n        /* \"#utility.yul\":8060:8066   */\n      dup3\n        /* \"#utility.yul\":8057:8071   */\n      lt\n        /* \"#utility.yul\":8037:8055   */\n      dup2\n        /* \"#utility.yul\":8034:8072   */\n      sub\n        /* \"#utility.yul\":8031:8115   */\n      tag_216\n      jumpi\n        /* \"#utility.yul\":8087:8105   */\n      tag_217\n      tag_107\n      jump\t// in\n    tag_217:\n        /* \"#utility.yul\":8031:8115   */\n    tag_216:\n        /* \"#utility.yul\":7852:8121   */\n      pop\n        /* \"#utility.yul\":7801:8121   */\n      swap2\n      swap1\n      pop\n      jump\t// out\n        /* \"#utility.yul\":8127:8268   */\n    tag_108:\n        /* \"#utility.yul\":8176:8180   */\n      0x00\n        /* \"#utility.yul\":8199:8202   */\n      dup2\n        /* \"#utility.yul\":8191:8202   */\n      swap1\n      pop\n        /* \"#utility.yul\":8222:8225   */\n      dup2\n        /* \"#utility.yul\":8219:8220   */\n      0x00\n        /* \"#utility.yul\":8212:8226   */\n      mstore\n        /* \"#utility.yul\":8256:8260   */\n      0x20\n        /* \"#utility.yul\":8253:8254   */\n      0x00\n        /* \"#utility.yul\":8243:8261   */\n      keccak256\n        /* \"#utility.yul\":8235:8261   */\n      swap1\n      pop\n        /* \"#utility.yul\":8127:8268   */\n      swap2\n      swap1\n      pop\n      jump\t// out\n        /* \"#utility.yul\":8274:8367   */\n    tag_109:\n        /* \"#utility.yul\":8311:8317   */\n      0x00\n        /* \"#utility.yul\":8358:8360   */\n      0x20\n        /* \"#utility.yul\":8353:8355   */\n      0x1f\n        /* \"#utility.yul\":8346:8351   */\n      dup4\n        /* \"#utility.yul\":8342:8356   */\n      add\n        /* \"#utility.yul\":8338:8361   */\n      div\n        /* \"#utility.yul\":8328:8361   */\n      swap1\n      pop\n        /* \"#utility.yul\":8274:8367   */\n      swap2\n      swap1\n      pop\n      jump\t// out\n        /* \"#utility.yul\":8373:8480   */\n    tag_110:\n        /* \"#utility.yul\":8417:8425   */\n      0x00\n        /* \"#utility.yul\":8467:8472   */\n      dup3\n        /* \"#utility.yul\":8461:8465   */\n      dup3\n        /* \"#utility.yul\":8457:8473   */\n      shl\n        /* \"#utility.yul\":8436:8473   */\n      swap1\n      pop\n        /* \"#utility.yul\":8373:8480   */\n      swap3\n      swap2\n      pop\n      pop\n      jump\t// out\n        /* \"#utility.yul\":8486:8879   */\n    tag_111:\n        /* \"#utility.yul\":8555:8561   */\n      0x00\n        /* \"#utility.yul\":8605:8606   */\n      0x08\n        /* \"#utility.yul\":8593:8603   */\n      dup4\n        /* \"#utility.yul\":8589:8607   */\n      mul\n        /* \"#utility.yul\":8628:8725   */\n      tag_222\n        /* \"#utility.yul\":8658:8724   */\n      0xffffffffffffffffffffffffffffffffffffffffffffffffffffffffffffffff\n        /* \"#utility.yul\":8647:8656   */\n      dup3\n        /* \"#utility.yul\":8628:8725   */\n      tag_110\n      jump\t// in\n    tag_222:\n        /* \"#utility.yul\":8746:8785   */\n      tag_223\n        /* \"#utility.yul\":8776:8784   */\n      dup7\n        /* \"#utility.yul\":8765:8774   */\n      dup4\n        /* \"#utility.yul\":8746:8785   */\n      tag_110\n      jump\t// in\n    tag_223:\n        /* \"#utility.yul\":8734:8785   */\n      swap6\n      pop\n        /* \"#utility.yul\":8818:8822   */\n      dup1\n        /* \"#utility.yul\":8814:8823   */\n      not\n        /* \"#utility.yul\":8807:8812   */\n      dup5\n        /* \"#utility.yul\":8803:8824   */\n      and\n        /* \"#utility.yul\":8794:8824   */\n      swap4\n      pop\n        /* \"#utility.yul\":8867:8871   */\n      dup1\n        /* \"#utility.yul\":8857:8865   */\n      dup7\n        /* \"#utility.yul\":8853:8872   */\n      and\n        /* \"#utility.yul\":8846:8851   */\n      dup5\n        /* \"#utility.yul\":8843:8873   */\n      or\n        /* \"#utility.yul\":8833:8873   */\n      swap3\n      pop\n        /* \"#utility.yul\":8562:8879   */\n      pop\n      pop\n        /* \"#utility.yul\":8486:8879   */\n      swap4\n      swap3\n      pop\n      pop\n      pop\n      jump\t// out\n        /* \"#utility.yul\":8885:8945   */\n    tag_112:\n        /* \"#utility.yul\":8913:8916   */\n      0x00\n        /* \"#utility.yul\":8934:8939   */\n      dup2\n        /* \"#utility.yul\":8927:8939   */\n      swap1\n      pop\n        /* \"#utility.yul\":8885:8945   */\n      swap2\n      swap1\n      pop\n      jump\t// out\n        /* \"#utility.yul\":8951:9093   */\n    tag_113:\n        /* \"#utility.yul\":9001:9010   */\n      0x00\n        /* \"#utility.yul\":9034:9087   */\n      tag_226\n        /* \"#utility.yul\":9052:9086   */\n      tag_227\n        /* \"#utility.yul\":9061:9085   */\n      tag_228\n        /* \"#utility.yul\":9079:9084   */\n      dup5\n        /* \"#utility.yul\":9061:9085   */\n      tag_81\n      jump\t// in\n    tag_228:\n        /* \"#utility.yul\":9052:9086   */\n      tag_112\n      jump\t// in\n    tag_227:\n        /* \"#utility.yul\":9034:9087   */\n      tag_81\n      jump\t// in\n    tag_226:\n        /* \"#utility.yul\":9021:9087   */\n      swap1\n      pop\n        /* \"#utility.yul\":8951:9093   */\n      swap2\n      swap1\n      pop\n      jump\t// out\n        /* \"#utility.yul\":9099:9174   */\n    tag_114:\n        /* \"#utility.yul\":9142:9145   */\n      0x00\n        /* \"#utility.yul\":9163:9168   */\n      dup2\n        /* \"#utility.yul\":9156:9168   */\n      swap1\n      pop\n        /* \"#utility.yul\":9099:9174   */\n      swap2\n      swap1\n      pop\n      jump\t// out\n        /* \"#utility.yul\":9180:9449   */\n    tag_115:\n        /* \"#utility.yul\":9290:9329   */\n      tag_231\n        /* \"#utility.yul\":9321:9328   */\n      dup4\n        /* \"#utility.yul\":9290:9329   */\n      tag_113\n      jump\t// in\n    tag_231:\n        /* \"#utility.yul\":9351:9442   */\n      tag_232\n        /* \"#utility.yul\":9400:9441   */\n      tag_233\n        /* \"#utility.yul\":9424:9440   */\n      dup3\n        /* \"#utility.yul\":9400:9441   */\n      tag_114\n      jump\t// in\n    tag_233:\n        /* \"#utility.yul\":9392:9398   */\n      dup5\n        /* \"#utility.yul\":9385:9389   */\n      dup5\n        /* \"#utility.yul\":9379:9390   */\n      sload\n        /* \"#utility.yul\":9351:9442   */\n      tag_111\n      jump\t// in\n    tag_232:\n        /* \"#utility.yul\":9345:9349   */\n      dup3\n        /* \"#utility.yul\":9338:9443   */\n      sstore\n        /* \"#utility.yul\":9256:9449   */\n      pop\n        /* \"#utility.yul\":9180:9449   */\n      pop\n      pop\n      pop\n      jump\t// out\n        /* \"#utility.yul\":9455:9528   */\n    tag_116:\n        /* \"#utility.yul\":9500:9503   */\n      0x00\n        /* \"#utility.yul\":9455:9528   */\n      swap1\n      jump\t// out\n        /* \"#utility.yul\":9534:9723   */\n    tag_117:\n        /* \"#utility.yul\":9611:9643   */\n      tag_236\n      tag_116\n      jump\t// in\n    tag_236:\n        /* \"#utility.yul\":9652:9717   */\n      tag_237\n        /* \"#utility.yul\":9710:9716   */\n      dup2\n        /* \"#utility.yul\":9702:9708   */\n      dup5\n        /* \"#utility.yul\":9696:9700   */\n      dup5\n        /* \"#utility.yul\":9652:9717   */\n      tag_115\n      jump\t// in\n    tag_237:\n        /* \"#utility.yul\":9587:9723   */\n      pop\n        /* \"#utility.yul\":9534:9723   */\n      pop\n      pop\n      jump\t// out\n        /* \"#utility.yul\":9729:9915   */\n    tag_118:\n        /* \"#utility.yul\":9789:9909   */\n    tag_239:\n        /* \"#utility.yul\":9806:9809   */\n      dup2\n        /* \"#utility.yul\":9799:9804   */\n      dup2\n        /* \"#utility.yul\":9796:9810   */\n      lt\n        /* \"#utility.yul\":9789:9909   */\n      iszero\n      tag_241\n      jumpi\n        /* \"#utility.yul\":9860:9899   */\n      tag_242\n        /* \"#utility.yul\":9897:9898   */\n      0x00\n        /* \"#utility.yul\":9890:9895   */\n      dup3\n        /* \"#utility.yul\":9860:9899   */\n      tag_117\n      jump\t// in\n    tag_242:\n        /* \"#utility.yul\":9833:9834   */\n      0x01\n        /* \"#utility.yul\":9826:9831   */\n      dup2\n        /* \"#utility.yul\":9822:9835   */\n      add\n        /* \"#utility.yul\":9813:9835   */\n      swap1\n      pop\n        /* \"#utility.yul\":9789:9909   */\n      jump(tag_239)\n    tag_241:\n        /* \"#utility.yul\":9729:9915   */\n      pop\n      pop\n      jump\t// out\n        /* \"#utility.yul\":9921:10464   */\n    tag_119:\n        /* \"#utility.yul\":10022:10024   */\n      0x1f\n        /* \"#utility.yul\":10017:10020   */\n      dup3\n        /* \"#utility.yul\":10014:10025   */\n      gt\n        /* \"#utility.yul\":10011:10457   */\n      iszero\n      tag_244\n      jumpi\n        /* \"#utility.yul\":10056:10094   */\n      tag_245\n        /* \"#utility.yul\":10088:10093   */\n      dup2\n        /* \"#utility.yul\":10056:10094   */\n      tag_108\n      jump\t// in\n    tag_245:\n        /* \"#utility.yul\":10140:10169   */\n      tag_246\n        /* \"#utility.yul\":10158:10168   */\n      dup5\n        /* \"#utility.yul\":10140:10169   */\n      tag_109\n      jump\t// in\n    tag_246:\n        /* \"#utility.yul\":10130:10138   */\n      dup2\n        /* \"#utility.yul\":10126:10170   */\n      add\n        /* \"#utility.yul\":10323:10325   */\n      0x20\n        /* \"#utility.yul\":10311:10321   */\n      dup6\n        /* \"#utility.yul\":10308:10326   */\n      lt\n        /* \"#utility.yul\":10305:10354   */\n      iszero\n      tag_247\n      jumpi\n        /* \"#utility.yul\":10344:10352   */\n      dup2\n        /* \"#utility.yul\":10329:10352   */\n      swap1\n      pop\n        /* \"#utility.yul\":10305:10354   */\n    tag_247:\n        /* \"#utility.yul\":10367:10447   */\n      tag_248\n        /* \"#utility.yul\":10423:10445   */\n      tag_249\n        /* \"#utility.yul\":10441:10444   */\n      dup6\n        /* \"#utility.yul\":10423:10445   */\n      tag_109\n      jump\t// in\n    tag_249:\n        /* \"#utility.yul\":10413:10421   */\n      dup4\n        /* \"#utility.yul\":10409:10446   */\n      add\n        /* \"#utility.yul\":10396:10407   */\n      dup3\n        /* \"#utility.yul\":10367:10447   */\n      tag_118\n      jump\t// in\n    tag_248:\n        /* \"#utility.yul\":10026:10457   */\n      pop\n      pop\n        /* \"#utility.yul\":10011:10457   */\n    tag_244:\n        /* \"#utility.yul\":9921:10464   */\n      pop\n      pop\n      pop\n      jump\t// out\n        /* \"#utility.yul\":10470:10587   */\n    tag_120:\n        /* \"#utility.yul\":10524:10532   */\n      0x00\n        /* \"#utility.yul\":10574:10579   */\n      dup3\n        /* \"#utility.yul\":10568:10572   */\n      dup3\n        /* \"#utility.yul\":10564:10580   */\n      shr\n        /* \"#utility.yul\":10543:10580   */\n      swap1\n      pop\n        /* \"#utility.yul\":10470:10587   */\n      swap3\n      swap2\n      pop\n      pop\n      jump\t// out\n        /* \"#utility.yul\":10593:10762   */\n    tag_121:\n        /* \"#utility.yul\":10637:10643   */\n      0x00\n        /* \"#utility.yul\":10670:10721   */\n      tag_252\n        /* \"#utility.yul\":10718:10719   */\n      0x00\n        /* \"#utility.yul\":10714:10720   */\n      not\n        /* \"#utility.yul\":10706:10711   */\n      dup5\n        /* \"#utility.yul\":10703:10704   */\n      0x08\n        /* \"#utility.yul\":10699:10712   */\n      mul\n        /* \"#utility.yul\":10670:10721   */\n      tag_120\n      jump\t// in\n    tag_252:\n        /* \"#utility.yul\":10666:10722   */\n      not\n        /* \"#utility.yul\":10751:10755   */\n      dup1\n        /* \"#utility.yul\":10745:10749   */\n      dup4\n        /* \"#utility.yul\":10741:10756   */\n      and\n        /* \"#utility.yul\":10731:10756   */\n      swap2\n      pop\n        /* \"#utility.yul\":10644:10762   */\n      pop\n        /* \"#utility.yul\":10593:10762   */\n      swap3\n      swap2\n      pop\n      pop\n      jump\t// out\n        /* \"#utility.yul\":10767:11062   */\n    tag_122:\n        /* \"#utility.yul\":10843:10847   */\n      0x00\n        /* \"#utility.yul\":10989:11018   */\n      tag_254\n        /* \"#utility.yul\":11014:11017   */\n      dup4\n        /* \"#utility.yul\":11008:11012   */\n      dup4\n        /* \"#utility.yul\":10989:11018   */\n      tag_121\n      jump\t// in\n    tag_254:\n        /* \"#utility.yul\":10981:11018   */\n      swap2\n      pop\n        /* \"#utility.yul\":11051:11054   */\n      dup3\n        /* \"#utility.yul\":11048:11049   */\n      0x02\n        /* \"#utility.yul\":11044:11055   */\n      mul\n        /* \"#utility.yul\":11038:11042   */\n      dup3\n        /* \"#utility.yul\":11035:11056   */\n      or\n        /* \"#utility.yul\":11027:11056   */\n      swap1\n      pop\n        /* \"#utility.yul\":10767:11062   */\n      swap3\n      swap2\n      pop\n      pop\n      jump\t// out\n        /* \"#utility.yul\":11067:12462   */\n    tag_47:\n        /* \"#utility.yul\":11184:11221   */\n      tag_256\n        /* \"#utility.yul\":11217:11220   */\n      dup3\n        /* \"#utility.yul\":11184:11221   */\n      tag_91\n      jump\t// in\n    tag_256:\n        /* \"#utility.yul\":11286:11304   */\n      0xffffffffffffffff\n        /* \"#utility.yul\":11278:11284   */\n      dup2\n        /* \"#utility.yul\":11275:11305   */\n      gt\n        /* \"#utility.yul\":11272:11328   */\n      iszero\n      tag_257\n      jumpi\n        /* \"#utility.yul\":11308:11326   */\n      tag_258\n      tag_100\n      jump\t// in\n    tag_258:\n        /* \"#utility.yul\":11272:11328   */\n    tag_257:\n        /* \"#utility.yul\":11352:11390   */\n      tag_259\n        /* \"#utility.yul\":11384:11388   */\n      dup3\n        /* \"#utility.yul\":11378:11389   */\n      sload\n        /* \"#utility.yul\":11352:11390   */\n      tag_34\n      jump\t// in\n    tag_259:\n        /* \"#utility.yul\":11437:11504   */\n      tag_260\n        /* \"#utility.yul\":11497:11503   */\n      dup3\n        /* \"#utility.yul\":11489:11495   */\n      dup3\n        /* \"#utility.yul\":11483:11487   */\n      dup6\n        /* \"#utility.yul\":11437:11504   */\n      tag_119\n      jump\t// in\n    tag_260:\n        /* \"#utility.yul\":11531:11532   */\n      0x00\n        /* \"#utility.yul\":11555:11559   */\n      0x20\n        /* \"#utility.yul\":11542:11559   */\n      swap1\n      pop\n        /* \"#utility.yul\":11587:11589   */\n      0x1f\n        /* \"#utility.yul\":11579:11585   */\n      dup4\n        /* \"#utility.yul\":11576:11590   */\n      gt\n        /* \"#utility.yul\":11604:11605   */\n      0x01\n        /* \"#utility.yul\":11599:12217   */\n      dup2\n      eq\n      tag_262\n      jumpi\n        /* \"#utility.yul\":12261:12262   */\n      0x00\n        /* \"#utility.yul\":12278:12284   */\n      dup5\n        /* \"#utility.yul\":12275:12352   */\n      iszero\n      tag_263\n      jumpi\n        /* \"#utility.yul\":12327:12336   */\n      dup3\n        /* \"#utility.yul\":12322:12325   */\n      dup8\n        /* \"#utility.yul\":12318:12337   */\n      add\n        /* \"#utility.yul\":12312:12338   */\n      mload\n        /* \"#utility.yul\":12303:12338   */\n      swap1\n      pop\n        /* \"#utility.yul\":12275:12352   */\n    tag_263:\n        /* \"#utility.yul\":12378:12445   */\n      tag_264\n        /* \"#utility.yul\":12438:12444   */\n      dup6\n        /* \"#utility.yul\":12431:12436   */\n      dup3\n        /* \"#utility.yul\":12378:12445   */\n      tag_122\n      jump\t// in\n    tag_264:\n        /* \"#utility.yul\":12372:12376   */\n      dup7\n        /* \"#utility.yul\":12365:12446   */\n      sstore\n        /* \"#utility.yul\":12234:12456   */\n      pop\n        /* \"#utility.yul\":11569:12456   */\n      jump(tag_261)\n        /* \"#utility.yul\":11599:12217   */\n    tag_262:\n        /* \"#utility.yul\":11651:11655   */\n      0x1f\n        /* \"#utility.yul\":11647:11656   */\n      not\n        /* \"#utility.yul\":11639:11645   */\n      dup5\n        /* \"#utility.yul\":11635:11657   */\n      and\n        /* \"#utility.yul\":11685:11722   */\n      tag_265\n        /* \"#utility.yul\":11717:11721   */\n      dup7\n        /* \"#utility.yul\":11685:11722   */\n      tag_108\n      jump\t// in\n    tag_265:\n        /* \"#utility.yul\":11744:11745   */\n      0x00\n        /* \"#utility.yul\":11758:11966   */\n    tag_266:\n        /* \"#utility.yul\":11772:11779   */\n      dup3\n        /* \"#utility.yul\":11769:11770   */\n      dup2\n        /* \"#utility.yul\":11766:11780   */\n      lt\n        /* \"#utility.yul\":11758:11966   */\n      iszero\n      tag_268\n      jumpi\n        /* \"#utility.yul\":11851:11860   */\n      dup5\n        /* \"#utility.yul\":11846:11849   */\n      dup10\n        /* \"#utility.yul\":11842:11861   */\n      add\n        /* \"#utility.yul\":11836:11862   */\n      mload\n        /* \"#utility.yul\":11828:11834   */\n      dup3\n        /* \"#utility.yul\":11821:11863   */\n      sstore\n        /* \"#utility.yul\":11902:11903   */\n      0x01\n        /* \"#utility.yul\":11894:11900   */\n      dup3\n        /* \"#utility.yul\":11890:11904   */\n      add\n        /* \"#utility.yul\":11880:11904   */\n      swap2\n      pop\n        /* \"#utility.yul\":11949:11951   */\n      0x20\n        /* \"#utility.yul\":11938:11947   */\n      dup6\n        /* \"#utility.yul\":11934:11952   */\n      add\n        /* \"#utility.yul\":11921:11952   */\n      swap5\n      pop\n        /* \"#utility.yul\":11795:11799   */\n      0x20\n        /* \"#utility.yul\":11792:11793   */\n      dup2\n        /* \"#utility.yul\":11788:11800   */\n      add\n        /* \"#utility.yul\":11783:11800   */\n      swap1\n      pop\n        /* \"#utility.yul\":11758:11966   */\n      jump(tag_266)\n    tag_268:\n        /* \"#utility.yul\":11994:12000   */\n      dup7\n        /* \"#utility.yul\":11985:11992   */\n      dup4\n        /* \"#utility.yul\":11982:12001   */\n      lt\n        /* \"#utility.yul\":11979:12158   */\n      iszero\n      tag_269\n      jumpi\n        /* \"#utility.yul\":12052:12061   */\n      dup5\n        /* \"#utility.yul\":12047:12050   */\n      dup10\n        /* \"#utility.yul\":12043:12062   */\n      add\n        /* \"#utility.yul\":12037:12063   */\n      mload\n        /* \"#utility.yul\":12095:12143   */\n      tag_270\n        /* \"#utility.yul\":12137:12141   */\n      0x1f\n        /* \"#utility.yul\":12129:12135   */\n      dup10\n        /* \"#utility.yul\":12125:12142   */\n      and\n        /* \"#utility.yul\":12114:12123   */\n      dup3\n        /* \"#utility.yul\":12095:12143   */\n      tag_121\n      jump\t// in\n    tag_270:\n        /* \"#utility.yul\":12087:12093   */\n      dup4\n        /* \"#utility.yul\":12080:12144   */\n      sstore\n        /* \"#utility.yul\":12002:12158   */\n      pop\n        /* \"#utility.yul\":11979:12158   */\n    tag_269:\n        /* \"#utility.yul\":12204:12205   */\n      0x01\n        /* \"#utility.yul\":12200:12201   */\n      0x02\n        /* \"#utility.yul\":12192:12198   */\n      dup9\n        /* \"#utility.yul\":12188:12202   */\n      mul\n        /* \"#utility.yul\":12184:12206   */\n      add\n        /* \"#utility.yul\":12178:12182   */\n      dup9\n        /* \"#utility.yul\":12171:12207   */\n      sstore\n        /* \"#utility.yul\":11606:12217   */\n      pop\n      pop\n      pop\n        /* \"#utility.yul\":11569:12456   */\n    tag_261:\n      pop\n        /* \"#utility.yul\":11159:12462   */\n      pop\n      pop\n      pop\n        /* \"#utility.yul\":11067:12462   */\n      pop\n      pop\n      jump\t// out\n        /* \"#utility.yul\":12468:12800   */\n    tag_50:\n        /* \"#utility.yul\":12589:12593   */\n      0x00\n        /* \"#utility.yul\":12627:12629   */\n      0x40\n        /* \"#utility.yul\":12616:12625   */\n      dup3\n        /* \"#utility.yul\":12612:12630   */\n      add\n        /* \"#utility.yul\":12604:12630   */\n      swap1\n      pop\n        /* \"#utility.yul\":12640:12711   */\n      tag_272\n        /* \"#utility.yul\":12708:12709   */\n      0x00\n        /* \"#utility.yul\":12697:12706   */\n      dup4\n        /* \"#utility.yul\":12693:12710   */\n      add\n        /* \"#utility.yul\":12684:12690   */\n      dup6\n        /* \"#utility.yul\":12640:12711   */\n      tag_82\n      jump\t// in\n    tag_272:\n        /* \"#utility.yul\":12721:12793   */\n      tag_273\n        /* \"#utility.yul\":12789:12791   */\n      0x20\n        /* \"#utility.yul\":12778:12787   */\n      dup4\n        /* \"#utility.yul\":12774:12792   */\n      add\n        /* \"#utility.yul\":12765:12771   */\n      dup5\n        /* \"#utility.yul\":12721:12793   */\n      tag_90\n      jump\t// in\n    tag_273:\n        /* \"#utility.yul\":12468:12800   */\n      swap4\n      swap3\n      pop\n      pop\n      pop\n      jump\t// out\n        /* \"#utility.yul\":12806:12986   */\n    tag_123:\n        /* \"#utility.yul\":12854:12931   */\n      0x4e487b7100000000000000000000000000000000000000000000000000000000\n        /* \"#utility.yul\":12851:12852   */\n      0x00\n        /* \"#utility.yul\":12844:12932   */\n      mstore\n        /* \"#utility.yul\":12951:12955   */\n      0x11\n        /* \"#utility.yul\":12948:12949   */\n      0x04\n        /* \"#utility.yul\":12941:12956   */\n      mstore\n        /* \"#utility.yul\":12975:12979   */\n      0x24\n        /* \"#utility.yul\":12972:12973   */\n      0x00\n        /* \"#utility.yul\":12965:12980   */\n      revert\n        /* \"#utility.yul\":12992:13225   */\n    tag_52:\n        /* \"#utility.yul\":13031:13034   */\n      0x00\n        /* \"#utility.yul\":13054:13078   */\n      tag_276\n        /* \"#utility.yul\":13072:13077   */\n      dup3\n        /* \"#utility.yul\":13054:13078   */\n      tag_81\n      jump\t// in\n    tag_276:\n        /* \"#utility.yul\":13045:13078   */\n      swap2\n      pop\n        /* \"#utility.yul\":13100:13166   */\n      0xffffffffffffffffffffffffffffffffffffffffffffffffffffffffffffffff\n        /* \"#utility.yul\":13093:13098   */\n      dup3\n        /* \"#utility.yul\":13090:13167   */\n      sub\n        /* \"#utility.yul\":13087:13190   */\n      tag_277\n      jumpi\n        /* \"#utility.yul\":13170:13188   */\n      tag_278\n      tag_123\n      jump\t// in\n    tag_278:\n        /* \"#utility.yul\":13087:13190   */\n    tag_277:\n        /* \"#utility.yul\":13217:13218   */\n      0x01\n        /* \"#utility.yul\":13210:13215   */\n      dup3\n        /* \"#utility.yul\":13206:13219   */\n      add\n        /* \"#utility.yul\":13199:13219   */\n      swap1\n      pop\n        /* \"#utility.yul\":12992:13225   */\n      swap2\n      swap1\n      pop\n      jump\t// out\n        /* \"#utility.yul\":13231:13411   */\n    tag_56:\n        /* \"#utility.yul\":13279:13356   */\n      0x4e487b7100000000000000000000000000000000000000000000000000000000\n        /* \"#utility.yul\":13276:13277   */\n      0x00\n        /* \"#utility.yul\":13269:13357   */\n      mstore\n        /* \"#utility.yul\":13376:13380   */\n      0x32\n        /* \"#utility.yul\":13373:13374   */\n      0x04\n        /* \"#utility.yul\":13366:13381   */\n      mstore\n        /* \"#utility.yul\":13400:13404   */\n      0x24\n        /* \"#utility.yul\":13397:13398   */\n      0x00\n        /* \"#utility.yul\":13390:13405   */\n      revert\n        /* \"#utility.yul\":13417:13592   */\n    tag_124:\n        /* \"#utility.yul\":13557:13584   */\n      0x436f6d706c61696e7420616c7265616479207265706c69656400000000000000\n        /* \"#utility.yul\":13553:13554   */\n      0x00\n        /* \"#utility.yul\":13545:13551   */\n      dup3\n        /* \"#utility.yul\":13541:13555   */\n      add\n        /* \"#utility.yul\":13534:13585   */\n      mstore\n        /* \"#utility.yul\":13417:13592   */\n      pop\n      jump\t// out\n        /* \"#utility.yul\":13598:13964   */\n    tag_125:\n        /* \"#utility.yul\":13740:13743   */\n      0x00\n        /* \"#utility.yul\":13761:13828   */\n      tag_282\n        /* \"#utility.yul\":13825:13827   */\n      0x19\n        /* \"#utility.yul\":13820:13823   */\n      dup4\n        /* \"#utility.yul\":13761:13828   */\n      tag_92\n      jump\t// in\n    tag_282:\n        /* \"#utility.yul\":13754:13828   */\n      swap2\n      pop\n        /* \"#utility.yul\":13837:13930   */\n      tag_283\n        /* \"#utility.yul\":13926:13929   */\n      dup3\n        /* \"#utility.yul\":13837:13930   */\n      tag_124\n      jump\t// in\n    tag_283:\n        /* \"#utility.yul\":13955:13957   */\n      0x20\n        /* \"#utility.yul\":13950:13953   */\n      dup3\n        /* \"#utility.yul\":13946:13958   */\n      add\n        /* \"#utility.yul\":13939:13958   */\n      swap1\n      pop\n        /* \"#utility.yul\":13598:13964   */\n      swap2\n      swap1\n      pop\n      jump\t// out\n        /* \"#utility.yul\":13970:14389   */\n    tag_60:\n        /* \"#utility.yul\":14136:14140   */\n      0x00\n        /* \"#utility.yul\":14174:14176   */\n      0x20\n        /* \"#utility.yul\":14163:14172   */\n      dup3\n        /* \"#utility.yul\":14159:14177   */\n      add\n        /* \"#utility.yul\":14151:14177   */\n      swap1\n      pop\n        /* \"#utility.yul\":14223:14232   */\n      dup2\n        /* \"#utility.yul\":14217:14221   */\n      dup2\n        /* \"#utility.yul\":14213:14233   */\n      sub\n        /* \"#utility.yul\":14209:14210   */\n      0x00\n        /* \"#utility.yul\":14198:14207   */\n      dup4\n        /* \"#utility.yul\":14194:14211   */\n      add\n        /* \"#utility.yul\":14187:14234   */\n      mstore\n        /* \"#utility.yul\":14251:14382   */\n      tag_285\n        /* \"#utility.yul\":14377:14381   */\n      dup2\n        /* \"#utility.yul\":14251:14382   */\n      tag_125\n      jump\t// in\n    tag_285:\n        /* \"#utility.yul\":14243:14382   */\n      swap1\n      pop\n        /* \"#utility.yul\":13970:14389   */\n      swap2\n      swap1\n      pop\n      jump\t// out\n        /* \"#utility.yul\":14395:14625   */\n    tag_126:\n        /* \"#utility.yul\":14535:14569   */\n      0x50617469656e742063616e6e6f74207265706c7920746f207468656972206f77\n        /* \"#utility.yul\":14531:14532   */\n      0x00\n        /* \"#utility.yul\":14523:14529   */\n      dup3\n        /* \"#utility.yul\":14519:14533   */\n      add\n        /* \"#utility.yul\":14512:14570   */\n      mstore\n        /* \"#utility.yul\":14604:14617   */\n      0x6e20636f6d706c61696e74000000000000000000000000000000000000000000\n        /* \"#utility.yul\":14599:14601   */\n      0x20\n        /* \"#utility.yul\":14591:14597   */\n      dup3\n        /* \"#utility.yul\":14587:14602   */\n      add\n        /* \"#utility.yul\":14580:14618   */\n      mstore\n        /* \"#utility.yul\":14395:14625   */\n      pop\n      jump\t// out\n        /* \"#utility.yul\":14631:14997   */\n    tag_127:\n        /* \"#utility.yul\":14773:14776   */\n      0x00\n        /* \"#utility.yul\":14794:14861   */\n      tag_288\n        /* \"#utility.yul\":14858:14860   */\n      0x2b\n        /* \"#utility.yul\":14853:14856   */\n      dup4\n        /* \"#utility.yul\":14794:14861   */\n      tag_92\n      jump\t// in\n    tag_288:\n        /* \"#utility.yul\":14787:14861   */\n      swap2\n      pop\n        /* \"#utility.yul\":14870:14963   */\n      tag_289\n        /* \"#utility.yul\":14959:14962   */\n      dup3\n        /* \"#utility.yul\":14870:14963   */\n      tag_126\n      jump\t// in\n    tag_289:\n        /* \"#utility.yul\":14988:14990   */\n      0x40\n        /* \"#utility.yul\":14983:14986   */\n      dup3\n        /* \"#utility.yul\":14979:14991   */\n      add\n        /* \"#utility.yul\":14972:14991   */\n      swap1\n      pop\n        /* \"#utility.yul\":14631:14997   */\n      swap2\n      swap1\n      pop\n      jump\t// out\n        /* \"#utility.yul\":15003:15422   */\n    tag_63:\n        /* \"#utility.yul\":15169:15173   */\n      0x00\n        /* \"#utility.yul\":15207:15209   */\n      0x20\n        /* \"#utility.yul\":15196:15205   */\n      dup3\n        /* \"#utility.yul\":15192:15210   */\n      add\n        /* \"#utility.yul\":15184:15210   */\n      swap1\n      pop\n        /* \"#utility.yul\":15256:15265   */\n      dup2\n        /* \"#utility.yul\":15250:15254   */\n      dup2\n        /* \"#utility.yul\":15246:15266   */\n      sub\n        /* \"#utility.yul\":15242:15243   */\n      0x00\n        /* \"#utility.yul\":15231:15240   */\n      dup4\n        /* \"#utility.yul\":15227:15244   */\n      add\n        /* \"#utility.yul\":15220:15267   */\n      mstore\n        /* \"#utility.yul\":15284:15415   */\n      tag_291\n        /* \"#utility.yul\":15410:15414   */\n      dup2\n        /* \"#utility.yul\":15284:15415   */\n      tag_127\n      jump\t// in\n    tag_291:\n        /* \"#utility.yul\":15276:15415   */\n      swap1\n      pop\n        /* \"#utility.yul\":15003:15422   */\n      swap2\n      swap1\n      pop\n      jump\t// out\n        /* \"#utility.yul\":15428:15851   */\n    tag_66:\n        /* \"#utility.yul\":15569:15573   */\n      0x00\n        /* \"#utility.yul\":15607:15609   */\n      0x40\n        /* \"#utility.yul\":15596:15605   */\n      dup3\n        /* \"#utility.yul\":15592:15610   */\n      add\n        /* \"#utility.yul\":15584:15610   */\n      swap1\n      pop\n        /* \"#utility.yul\":15620:15691   */\n      tag_293\n        /* \"#utility.yul\":15688:15689   */\n      0x00\n        /* \"#utility.yul\":15677:15686   */\n      dup4\n        /* \"#utility.yul\":15673:15690   */\n      add\n        /* \"#utility.yul\":15664:15670   */\n      dup6\n        /* \"#utility.yul\":15620:15691   */\n      tag_82\n      jump\t// in\n    tag_293:\n        /* \"#utility.yul\":15738:15747   */\n      dup2\n        /* \"#utility.yul\":15732:15736   */\n      dup2\n        /* \"#utility.yul\":15728:15748   */\n      sub\n        /* \"#utility.yul\":15723:15725   */\n      0x20\n        /* \"#utility.yul\":15712:15721   */\n      dup4\n        /* \"#utility.yul\":15708:15726   */\n      add\n        /* \"#utility.yul\":15701:15749   */\n      mstore\n        /* \"#utility.yul\":15766:15844   */\n      tag_294\n        /* \"#utility.yul\":15839:15843   */\n      dup2\n        /* \"#utility.yul\":15830:15836   */\n      dup5\n        /* \"#utility.yul\":15766:15844   */\n      tag_95\n      jump\t// in\n    tag_294:\n        /* \"#utility.yul\":15758:15844   */\n      swap1\n      pop\n        /* \"#utility.yul\":15428:15851   */\n      swap4\n      swap3\n      pop\n      pop\n      pop\n      jump\t// out\n\n    auxdata: 0xa2646970667358221220363bbf270488671d35d708582cfd9b526e2973c04ea9f1abfe03e448fcc44e4c64736f6c63430008160033\n}\n",
				"bytecode": {
					"linkReferences": {},
					"object": "608060405234801561000f575f80fd5b506110098061001d5f395ff3fe608060405234801561000f575f80fd5b5060043610610055575f3560e01c80632edea294146100595780637e69e91214610077578063dd681725146100ab578063deb514ff146100c7578063dee8ae43146100e3575b5f80fd5b610061610114565b60405161006e919061075b565b60405180910390f35b610091600480360381019061008c91906107af565b61011a565b6040516100a29594939291906108bd565b60405180910390f35b6100c560048036038101906100c09190610a48565b610291565b005b6100e160048036038101906100dc9190610a8f565b6103f7565b005b6100fd60048036038101906100f891906107af565b610567565b60405161010b929190610ae9565b60405180910390f35b60015481565b5f8181548110610128575f80fd5b905f5260205f2090600502015f91509050805f015490806001015f9054906101000a900473ffffffffffffffffffffffffffffffffffffffff169080600201805461017290610b4b565b80601f016020809104026020016040519081016040528092919081815260200182805461019e90610b4b565b80156101e95780601f106101c0576101008083540402835291602001916101e9565b820191905f5260205f20905b8154815290600101906020018083116101cc57829003601f168201915b5050505050908060030180546101fe90610b4b565b80601f016020809104026020016040519081016040528092919081815260200182805461022a90610b4b565b80156102755780601f1061024c57610100808354040283529160200191610275565b820191905f5260205f20905b81548152906001019060200180831161025857829003601f168201915b505050505090806004015f9054906101000a900460ff16905085565b5f6040518060a0016040528060015481526020013373ffffffffffffffffffffffffffffffffffffffff16815260200183815260200160405180602001604052805f81525081526020015f1515815250908060018154018082558091505060019003905f5260205f2090600502015f909190919091505f820151815f01556020820151816001015f6101000a81548173ffffffffffffffffffffffffffffffffffffffff021916908373ffffffffffffffffffffffffffffffffffffffff160217905550604082015181600201908161036a9190610d18565b5060608201518160030190816103809190610d18565b506080820151816004015f6101000a81548160ff02191690831515021790555050507ffc180013b287e88eaa9ed474e70438808f32509f3d91c3f96d85db8abe645e12600154336040516103d5929190610de7565b60405180910390a160015f8154809291906103ef90610e3b565b919050555050565b5f80838154811061040b5761040a610e82565b5b905f5260205f2090600502019050806004015f9054906101000a900460ff161561046a576040517f08c379a000000000000000000000000000000000000000000000000000000000815260040161046190610ef9565b60405180910390fd5b806001015f9054906101000a900473ffffffffffffffffffffffffffffffffffffffff1673ffffffffffffffffffffffffffffffffffffffff163373ffffffffffffffffffffffffffffffffffffffff16036104fb576040517f08c379a00000000000000000000000000000000000000000000000000000000081526004016104f290610f87565b60405180910390fd5b8181600301908161050c9190610d18565b506001816004015f6101000a81548160ff0219169083151502179055507fd512a8d27030ccb82b4698a62c3a271ccabbbd3004d3c779764f6b2a847168d7838360405161055a929190610fa5565b60405180910390a1505050565b6060805f80848154811061057e5761057d610e82565b5b905f5260205f2090600502016040518060a00160405290815f8201548152602001600182015f9054906101000a900473ffffffffffffffffffffffffffffffffffffffff1673ffffffffffffffffffffffffffffffffffffffff1673ffffffffffffffffffffffffffffffffffffffff16815260200160028201805461060390610b4b565b80601f016020809104026020016040519081016040528092919081815260200182805461062f90610b4b565b801561067a5780601f106106515761010080835404028352916020019161067a565b820191905f5260205f20905b81548152906001019060200180831161065d57829003601f168201915b5050505050815260200160038201805461069390610b4b565b80601f01602080910402602001604051908101604052809291908181526020018280546106bf90610b4b565b801561070a5780601f106106e15761010080835404028352916020019161070a565b820191905f5260205f20905b8154815290600101906020018083116106ed57829003601f168201915b50505050508152602001600482015f9054906101000a900460ff1615151515815250509050806040015181606001519250925050915091565b5f819050919050565b61075581610743565b82525050565b5f60208201905061076e5f83018461074c565b92915050565b5f604051905090565b5f80fd5b5f80fd5b61078e81610743565b8114610798575f80fd5b50565b5f813590506107a981610785565b92915050565b5f602082840312156107c4576107c361077d565b5b5f6107d18482850161079b565b91505092915050565b5f73ffffffffffffffffffffffffffffffffffffffff82169050919050565b5f610803826107da565b9050919050565b610813816107f9565b82525050565b5f81519050919050565b5f82825260208201905092915050565b5f5b83811015610850578082015181840152602081019050610835565b5f8484015250505050565b5f601f19601f8301169050919050565b5f61087582610819565b61087f8185610823565b935061088f818560208601610833565b6108988161085b565b840191505092915050565b5f8115159050919050565b6108b7816108a3565b82525050565b5f60a0820190506108d05f83018861074c565b6108dd602083018761080a565b81810360408301526108ef818661086b565b90508181036060830152610903818561086b565b905061091260808301846108ae565b9695505050505050565b5f80fd5b5f80fd5b7f4e487b71000000000000000000000000000000000000000000000000000000005f52604160045260245ffd5b61095a8261085b565b810181811067ffffffffffffffff8211171561097957610978610924565b5b80604052505050565b5f61098b610774565b90506109978282610951565b919050565b5f67ffffffffffffffff8211156109b6576109b5610924565b5b6109bf8261085b565b9050602081019050919050565b828183375f83830152505050565b5f6109ec6109e78461099c565b610982565b905082815260208101848484011115610a0857610a07610920565b5b610a138482856109cc565b509392505050565b5f82601f830112610a2f57610a2e61091c565b5b8135610a3f8482602086016109da565b91505092915050565b5f60208284031215610a5d57610a5c61077d565b5b5f82013567ffffffffffffffff811115610a7a57610a79610781565b5b610a8684828501610a1b565b91505092915050565b5f8060408385031215610aa557610aa461077d565b5b5f610ab28582860161079b565b925050602083013567ffffffffffffffff811115610ad357610ad2610781565b5b610adf85828601610a1b565b9150509250929050565b5f6040820190508181035f830152610b01818561086b565b90508181036020830152610b15818461086b565b90509392505050565b7f4e487b71000000000000000000000000000000000000000000000000000000005f52602260045260245ffd5b5f6002820490506001821680610b6257607f821691505b602082108103610b7557610b74610b1e565b5b50919050565b5f819050815f5260205f209050919050565b5f6020601f8301049050919050565b5f82821b905092915050565b5f60088302610bd77fffffffffffffffffffffffffffffffffffffffffffffffffffffffffffffffff82610b9c565b610be18683610b9c565b95508019841693508086168417925050509392505050565b5f819050919050565b5f610c1c610c17610c1284610743565b610bf9565b610743565b9050919050565b5f819050919050565b610c3583610c02565b610c49610c4182610c23565b848454610ba8565b825550505050565b5f90565b610c5d610c51565b610c68818484610c2c565b505050565b5b81811015610c8b57610c805f82610c55565b600181019050610c6e565b5050565b601f821115610cd057610ca181610b7b565b610caa84610b8d565b81016020851015610cb9578190505b610ccd610cc585610b8d565b830182610c6d565b50505b505050565b5f82821c905092915050565b5f610cf05f1984600802610cd5565b1980831691505092915050565b5f610d088383610ce1565b9150826002028217905092915050565b610d2182610819565b67ffffffffffffffff811115610d3a57610d39610924565b5b610d448254610b4b565b610d4f828285610c8f565b5f60209050601f831160018114610d80575f8415610d6e578287015190505b610d788582610cfd565b865550610ddf565b601f198416610d8e86610b7b565b5f5b82811015610db557848901518255600182019150602085019450602081019050610d90565b86831015610dd25784890151610dce601f891682610ce1565b8355505b6001600288020188555050505b505050505050565b5f604082019050610dfa5f83018561074c565b610e07602083018461080a565b9392505050565b7f4e487b71000000000000000000000000000000000000000000000000000000005f52601160045260245ffd5b5f610e4582610743565b91507fffffffffffffffffffffffffffffffffffffffffffffffffffffffffffffffff8203610e7757610e76610e0e565b5b600182019050919050565b7f4e487b71000000000000000000000000000000000000000000000000000000005f52603260045260245ffd5b7f436f6d706c61696e7420616c7265616479207265706c696564000000000000005f82015250565b5f610ee3601983610823565b9150610eee82610eaf565b602082019050919050565b5f6020820190508181035f830152610f1081610ed7565b9050919050565b7f50617469656e742063616e6e6f74207265706c7920746f207468656972206f775f8201527f6e20636f6d706c61696e74000000000000000000000000000000000000000000602082015250565b5f610f71602b83610823565b9150610f7c82610f17565b604082019050919050565b5f6020820190508181035f830152610f9e81610f65565b9050919050565b5f604082019050610fb85f83018561074c565b8181036020830152610fca818461086b565b9050939250505056fea2646970667358221220363bbf270488671d35d708582cfd9b526e2973c04ea9f1abfe03e448fcc44e4c64736f6c63430008160033",
					"opcodes": "PUSH1 0x80 PUSH1 0x40 MSTORE CALLVALUE DUP1 ISZERO PUSH2 0xF JUMPI PUSH0 DUP1 REVERT JUMPDEST POP PUSH2 0x1009 DUP1 PUSH2 0x1D PUSH0 CODECOPY PUSH0 RETURN INVALID PUSH1 0x80 PUSH1 0x40 MSTORE CALLVALUE DUP1 ISZERO PUSH2 0xF JUMPI PUSH0 DUP1 REVERT JUMPDEST POP PUSH1 0x4 CALLDATASIZE LT PUSH2 0x55 JUMPI PUSH0 CALLDATALOAD PUSH1 0xE0 SHR DUP1 PUSH4 0x2EDEA294 EQ PUSH2 0x59 JUMPI DUP1 PUSH4 0x7E69E912 EQ PUSH2 0x77 JUMPI DUP1 PUSH4 0xDD681725 EQ PUSH2 0xAB JUMPI DUP1 PUSH4 0xDEB514FF EQ PUSH2 0xC7 JUMPI DUP1 PUSH4 0xDEE8AE43 EQ PUSH2 0xE3 JUMPI JUMPDEST PUSH0 DUP1 REVERT JUMPDEST PUSH2 0x61 PUSH2 0x114 JUMP JUMPDEST PUSH1 0x40 MLOAD PUSH2 0x6E SWAP2 SWAP1 PUSH2 0x75B JUMP JUMPDEST PUSH1 0x40 MLOAD DUP1 SWAP2 SUB SWAP1 RETURN JUMPDEST PUSH2 0x91 PUSH1 0x4 DUP1 CALLDATASIZE SUB DUP2 ADD SWAP1 PUSH2 0x8C SWAP2 SWAP1 PUSH2 0x7AF JUMP JUMPDEST PUSH2 0x11A JUMP JUMPDEST PUSH1 0x40 MLOAD PUSH2 0xA2 SWAP6 SWAP5 SWAP4 SWAP3 SWAP2 SWAP1 PUSH2 0x8BD JUMP JUMPDEST PUSH1 0x40 MLOAD DUP1 SWAP2 SUB SWAP1 RETURN JUMPDEST PUSH2 0xC5 PUSH1 0x4 DUP1 CALLDATASIZE SUB DUP2 ADD SWAP1 PUSH2 0xC0 SWAP2 SWAP1 PUSH2 0xA48 JUMP JUMPDEST PUSH2 0x291 JUMP JUMPDEST STOP JUMPDEST PUSH2 0xE1 PUSH1 0x4 DUP1 CALLDATASIZE SUB DUP2 ADD SWAP1 PUSH2 0xDC SWAP2 SWAP1 PUSH2 0xA8F JUMP JUMPDEST PUSH2 0x3F7 JUMP JUMPDEST STOP JUMPDEST PUSH2 0xFD PUSH1 0x4 DUP1 CALLDATASIZE SUB DUP2 ADD SWAP1 PUSH2 0xF8 SWAP2 SWAP1 PUSH2 0x7AF JUMP JUMPDEST PUSH2 0x567 JUMP JUMPDEST PUSH1 0x40 MLOAD PUSH2 0x10B SWAP3 SWAP2 SWAP1 PUSH2 0xAE9 JUMP JUMPDEST PUSH1 0x40 MLOAD DUP1 SWAP2 SUB SWAP1 RETURN JUMPDEST PUSH1 0x1 SLOAD DUP2 JUMP JUMPDEST PUSH0 DUP2 DUP2 SLOAD DUP2 LT PUSH2 0x128 JUMPI PUSH0 DUP1 REVERT JUMPDEST SWAP1 PUSH0 MSTORE PUSH1 0x20 PUSH0 KECCAK256 SWAP1 PUSH1 0x5 MUL ADD PUSH0 SWAP2 POP SWAP1 POP DUP1 PUSH0 ADD SLOAD SWAP1 DUP1 PUSH1 0x1 ADD PUSH0 SWAP1 SLOAD SWAP1 PUSH2 0x100 EXP SWAP1 DIV PUSH20 0xFFFFFFFFFFFFFFFFFFFFFFFFFFFFFFFFFFFFFFFF AND SWAP1 DUP1 PUSH1 0x2 ADD DUP1 SLOAD PUSH2 0x172 SWAP1 PUSH2 0xB4B JUMP JUMPDEST DUP1 PUSH1 0x1F ADD PUSH1 0x20 DUP1 SWAP2 DIV MUL PUSH1 0x20 ADD PUSH1 0x40 MLOAD SWAP1 DUP2 ADD PUSH1 0x40 MSTORE DUP1 SWAP3 SWAP2 SWAP1 DUP2 DUP2 MSTORE PUSH1 0x20 ADD DUP3 DUP1 SLOAD PUSH2 0x19E SWAP1 PUSH2 0xB4B JUMP JUMPDEST DUP1 ISZERO PUSH2 0x1E9 JUMPI DUP1 PUSH1 0x1F LT PUSH2 0x1C0 JUMPI PUSH2 0x100 DUP1 DUP4 SLOAD DIV MUL DUP4 MSTORE SWAP2 PUSH1 0x20 ADD SWAP2 PUSH2 0x1E9 JUMP JUMPDEST DUP3 ADD SWAP2 SWAP1 PUSH0 MSTORE PUSH1 0x20 PUSH0 KECCAK256 SWAP1 JUMPDEST DUP2 SLOAD DUP2 MSTORE SWAP1 PUSH1 0x1 ADD SWAP1 PUSH1 0x20 ADD DUP1 DUP4 GT PUSH2 0x1CC JUMPI DUP3 SWAP1 SUB PUSH1 0x1F AND DUP3 ADD SWAP2 JUMPDEST POP POP POP POP POP SWAP1 DUP1 PUSH1 0x3 ADD DUP1 SLOAD PUSH2 0x1FE SWAP1 PUSH2 0xB4B JUMP JUMPDEST DUP1 PUSH1 0x1F ADD PUSH1 0x20 DUP1 SWAP2 DIV MUL PUSH1 0x20 ADD PUSH1 0x40 MLOAD SWAP1 DUP2 ADD PUSH1 0x40 MSTORE DUP1 SWAP3 SWAP2 SWAP1 DUP2 DUP2 MSTORE PUSH1 0x20 ADD DUP3 DUP1 SLOAD PUSH2 0x22A SWAP1 PUSH2 0xB4B JUMP JUMPDEST DUP1 ISZERO PUSH2 0x275 JUMPI DUP1 PUSH1 0x1F LT PUSH2 0x24C JUMPI PUSH2 0x100 DUP1 DUP4 SLOAD DIV MUL DUP4 MSTORE SWAP2 PUSH1 0x20 ADD SWAP2 PUSH2 0x275 JUMP JUMPDEST DUP3 ADD SWAP2 SWAP1 PUSH0 MSTORE PUSH1 0x20 PUSH0 KECCAK256 SWAP1 JUMPDEST DUP2 SLOAD DUP2 MSTORE SWAP1 PUSH1 0x1 ADD SWAP1 PUSH1 0x20 ADD DUP1 DUP4 GT PUSH2 0x258 JUMPI DUP3 SWAP1 SUB PUSH1 0x1F AND DUP3 ADD SWAP2 JUMPDEST POP POP POP POP POP SWAP1 DUP1 PUSH1 0x4 ADD PUSH0 SWAP1 SLOAD SWAP1 PUSH2 0x100 EXP SWAP1 DIV PUSH1 0xFF AND SWAP1 POP DUP6 JUMP JUMPDEST PUSH0 PUSH1 0x40 MLOAD DUP1 PUSH1 0xA0 ADD PUSH1 0x40 MSTORE DUP1 PUSH1 0x1 SLOAD DUP2 MSTORE PUSH1 0x20 ADD CALLER PUSH20 0xFFFFFFFFFFFFFFFFFFFFFFFFFFFFFFFFFFFFFFFF AND DUP2 MSTORE PUSH1 0x20 ADD DUP4 DUP2 MSTORE PUSH1 0x20 ADD PUSH1 0x40 MLOAD DUP1 PUSH1 0x20 ADD PUSH1 0x40 MSTORE DUP1 PUSH0 DUP2 MSTORE POP DUP2 MSTORE PUSH1 0x20 ADD PUSH0 ISZERO ISZERO DUP2 MSTORE POP SWAP1 DUP1 PUSH1 0x1 DUP2 SLOAD ADD DUP1 DUP3 SSTORE DUP1 SWAP2 POP POP PUSH1 0x1 SWAP1 SUB SWAP1 PUSH0 MSTORE PUSH1 0x20 PUSH0 KECCAK256 SWAP1 PUSH1 0x5 MUL ADD PUSH0 SWAP1 SWAP2 SWAP1 SWAP2 SWAP1 SWAP2 POP PUSH0 DUP3 ADD MLOAD DUP2 PUSH0 ADD SSTORE PUSH1 0x20 DUP3 ADD MLOAD DUP2 PUSH1 0x1 ADD PUSH0 PUSH2 0x100 EXP DUP2 SLOAD DUP2 PUSH20 0xFFFFFFFFFFFFFFFFFFFFFFFFFFFFFFFFFFFFFFFF MUL NOT AND SWAP1 DUP4 PUSH20 0xFFFFFFFFFFFFFFFFFFFFFFFFFFFFFFFFFFFFFFFF AND MUL OR SWAP1 SSTORE POP PUSH1 0x40 DUP3 ADD MLOAD DUP2 PUSH1 0x2 ADD SWAP1 DUP2 PUSH2 0x36A SWAP2 SWAP1 PUSH2 0xD18 JUMP JUMPDEST POP PUSH1 0x60 DUP3 ADD MLOAD DUP2 PUSH1 0x3 ADD SWAP1 DUP2 PUSH2 0x380 SWAP2 SWAP1 PUSH2 0xD18 JUMP JUMPDEST POP PUSH1 0x80 DUP3 ADD MLOAD DUP2 PUSH1 0x4 ADD PUSH0 PUSH2 0x100 EXP DUP2 SLOAD DUP2 PUSH1 0xFF MUL NOT AND SWAP1 DUP4 ISZERO ISZERO MUL OR SWAP1 SSTORE POP POP POP PUSH32 0xFC180013B287E88EAA9ED474E70438808F32509F3D91C3F96D85DB8ABE645E12 PUSH1 0x1 SLOAD CALLER PUSH1 0x40 MLOAD PUSH2 0x3D5 SWAP3 SWAP2 SWAP1 PUSH2 0xDE7 JUMP JUMPDEST PUSH1 0x40 MLOAD DUP1 SWAP2 SUB SWAP1 LOG1 PUSH1 0x1 PUSH0 DUP2 SLOAD DUP1 SWAP3 SWAP2 SWAP1 PUSH2 0x3EF SWAP1 PUSH2 0xE3B JUMP JUMPDEST SWAP2 SWAP1 POP SSTORE POP POP JUMP JUMPDEST PUSH0 DUP1 DUP4 DUP2 SLOAD DUP2 LT PUSH2 0x40B JUMPI PUSH2 0x40A PUSH2 0xE82 JUMP JUMPDEST JUMPDEST SWAP1 PUSH0 MSTORE PUSH1 0x20 PUSH0 KECCAK256 SWAP1 PUSH1 0x5 MUL ADD SWAP1 POP DUP1 PUSH1 0x4 ADD PUSH0 SWAP1 SLOAD SWAP1 PUSH2 0x100 EXP SWAP1 DIV PUSH1 0xFF AND ISZERO PUSH2 0x46A JUMPI PUSH1 0x40 MLOAD PUSH32 0x8C379A000000000000000000000000000000000000000000000000000000000 DUP2 MSTORE PUSH1 0x4 ADD PUSH2 0x461 SWAP1 PUSH2 0xEF9 JUMP JUMPDEST PUSH1 0x40 MLOAD DUP1 SWAP2 SUB SWAP1 REVERT JUMPDEST DUP1 PUSH1 0x1 ADD PUSH0 SWAP1 SLOAD SWAP1 PUSH2 0x100 EXP SWAP1 DIV PUSH20 0xFFFFFFFFFFFFFFFFFFFFFFFFFFFFFFFFFFFFFFFF AND PUSH20 0xFFFFFFFFFFFFFFFFFFFFFFFFFFFFFFFFFFFFFFFF AND CALLER PUSH20 0xFFFFFFFFFFFFFFFFFFFFFFFFFFFFFFFFFFFFFFFF AND SUB PUSH2 0x4FB JUMPI PUSH1 0x40 MLOAD PUSH32 0x8C379A000000000000000000000000000000000000000000000000000000000 DUP2 MSTORE PUSH1 0x4 ADD PUSH2 0x4F2 SWAP1 PUSH2 0xF87 JUMP JUMPDEST PUSH1 0x40 MLOAD DUP1 SWAP2 SUB SWAP1 REVERT JUMPDEST DUP2 DUP2 PUSH1 0x3 ADD SWAP1 DUP2 PUSH2 0x50C SWAP2 SWAP1 PUSH2 0xD18 JUMP JUMPDEST POP PUSH1 0x1 DUP2 PUSH1 0x4 ADD PUSH0 PUSH2 0x100 EXP DUP2 SLOAD DUP2 PUSH1 0xFF MUL NOT AND SWAP1 DUP4 ISZERO ISZERO MUL OR SWAP1 SSTORE POP PUSH32 0xD512A8D27030CCB82B4698A62C3A271CCABBBD3004D3C779764F6B2A847168D7 DUP4 DUP4 PUSH1 0x40 MLOAD PUSH2 0x55A SWAP3 SWAP2 SWAP1 PUSH2 0xFA5 JUMP JUMPDEST PUSH1 0x40 MLOAD DUP1 SWAP2 SUB SWAP1 LOG1 POP POP POP JUMP JUMPDEST PUSH1 0x60 DUP1 PUSH0 DUP1 DUP5 DUP2 SLOAD DUP2 LT PUSH2 0x57E JUMPI PUSH2 0x57D PUSH2 0xE82 JUMP JUMPDEST JUMPDEST SWAP1 PUSH0 MSTORE PUSH1 0x20 PUSH0 KECCAK256 SWAP1 PUSH1 0x5 MUL ADD PUSH1 0x40 MLOAD DUP1 PUSH1 0xA0 ADD PUSH1 0x40 MSTORE SWAP1 DUP2 PUSH0 DUP3 ADD SLOAD DUP2 MSTORE PUSH1 0x20 ADD PUSH1 0x1 DUP3 ADD PUSH0 SWAP1 SLOAD SWAP1 PUSH2 0x100 EXP SWAP1 DIV PUSH20 0xFFFFFFFFFFFFFFFFFFFFFFFFFFFFFFFFFFFFFFFF AND PUSH20 0xFFFFFFFFFFFFFFFFFFFFFFFFFFFFFFFFFFFFFFFF AND PUSH20 0xFFFFFFFFFFFFFFFFFFFFFFFFFFFFFFFFFFFFFFFF AND DUP2 MSTORE PUSH1 0x20 ADD PUSH1 0x2 DUP3 ADD DUP1 SLOAD PUSH2 0x603 SWAP1 PUSH2 0xB4B JUMP JUMPDEST DUP1 PUSH1 0x1F ADD PUSH1 0x20 DUP1 SWAP2 DIV MUL PUSH1 0x20 ADD PUSH1 0x40 MLOAD SWAP1 DUP2 ADD PUSH1 0x40 MSTORE DUP1 SWAP3 SWAP2 SWAP1 DUP2 DUP2 MSTORE PUSH1 0x20 ADD DUP3 DUP1 SLOAD PUSH2 0x62F SWAP1 PUSH2 0xB4B JUMP JUMPDEST DUP1 ISZERO PUSH2 0x67A JUMPI DUP1 PUSH1 0x1F LT PUSH2 0x651 JUMPI PUSH2 0x100 DUP1 DUP4 SLOAD DIV MUL DUP4 MSTORE SWAP2 PUSH1 0x20 ADD SWAP2 PUSH2 0x67A JUMP JUMPDEST DUP3 ADD SWAP2 SWAP1 PUSH0 MSTORE PUSH1 0x20 PUSH0 KECCAK256 SWAP1 JUMPDEST DUP2 SLOAD DUP2 MSTORE SWAP1 PUSH1 0x1 ADD SWAP1 PUSH1 0x20 ADD DUP1 DUP4 GT PUSH2 0x65D JUMPI DUP3 SWAP1 SUB PUSH1 0x1F AND DUP3 ADD SWAP2 JUMPDEST POP POP POP POP POP DUP2 MSTORE PUSH1 0x20 ADD PUSH1 0x3 DUP3 ADD DUP1 SLOAD PUSH2 0x693 SWAP1 PUSH2 0xB4B JUMP JUMPDEST DUP1 PUSH1 0x1F ADD PUSH1 0x20 DUP1 SWAP2 DIV MUL PUSH1 0x20 ADD PUSH1 0x40 MLOAD SWAP1 DUP2 ADD PUSH1 0x40 MSTORE DUP1 SWAP3 SWAP2 SWAP1 DUP2 DUP2 MSTORE PUSH1 0x20 ADD DUP3 DUP1 SLOAD PUSH2 0x6BF SWAP1 PUSH2 0xB4B JUMP JUMPDEST DUP1 ISZERO PUSH2 0x70A JUMPI DUP1 PUSH1 0x1F LT PUSH2 0x6E1 JUMPI PUSH2 0x100 DUP1 DUP4 SLOAD DIV MUL DUP4 MSTORE SWAP2 PUSH1 0x20 ADD SWAP2 PUSH2 0x70A JUMP JUMPDEST DUP3 ADD SWAP2 SWAP1 PUSH0 MSTORE PUSH1 0x20 PUSH0 KECCAK256 SWAP1 JUMPDEST DUP2 SLOAD DUP2 MSTORE SWAP1 PUSH1 0x1 ADD SWAP1 PUSH1 0x20 ADD DUP1 DUP4 GT PUSH2 0x6ED JUMPI DUP3 SWAP1 SUB PUSH1 0x1F AND DUP3 ADD SWAP2 JUMPDEST POP POP POP POP POP DUP2 MSTORE PUSH1 0x20 ADD PUSH1 0x4 DUP3 ADD PUSH0 SWAP1 SLOAD SWAP1 PUSH2 0x100 EXP SWAP1 DIV PUSH1 0xFF AND ISZERO ISZERO ISZERO ISZERO DUP2 MSTORE POP POP SWAP1 POP DUP1 PUSH1 0x40 ADD MLOAD DUP2 PUSH1 0x60 ADD MLOAD SWAP3 POP SWAP3 POP POP SWAP2 POP SWAP2 JUMP JUMPDEST PUSH0 DUP2 SWAP1 POP SWAP2 SWAP1 POP JUMP JUMPDEST PUSH2 0x755 DUP2 PUSH2 0x743 JUMP JUMPDEST DUP3 MSTORE POP POP JUMP JUMPDEST PUSH0 PUSH1 0x20 DUP3 ADD SWAP1 POP PUSH2 0x76E PUSH0 DUP4 ADD DUP5 PUSH2 0x74C JUMP JUMPDEST SWAP3 SWAP2 POP POP JUMP JUMPDEST PUSH0 PUSH1 0x40 MLOAD SWAP1 POP SWAP1 JUMP JUMPDEST PUSH0 DUP1 REVERT JUMPDEST PUSH0 DUP1 REVERT JUMPDEST PUSH2 0x78E DUP2 PUSH2 0x743 JUMP JUMPDEST DUP2 EQ PUSH2 0x798 JUMPI PUSH0 DUP1 REVERT JUMPDEST POP JUMP JUMPDEST PUSH0 DUP2 CALLDATALOAD SWAP1 POP PUSH2 0x7A9 DUP2 PUSH2 0x785 JUMP JUMPDEST SWAP3 SWAP2 POP POP JUMP JUMPDEST PUSH0 PUSH1 0x20 DUP3 DUP5 SUB SLT ISZERO PUSH2 0x7C4 JUMPI PUSH2 0x7C3 PUSH2 0x77D JUMP JUMPDEST JUMPDEST PUSH0 PUSH2 0x7D1 DUP5 DUP3 DUP6 ADD PUSH2 0x79B JUMP JUMPDEST SWAP2 POP POP SWAP3 SWAP2 POP POP JUMP JUMPDEST PUSH0 PUSH20 0xFFFFFFFFFFFFFFFFFFFFFFFFFFFFFFFFFFFFFFFF DUP3 AND SWAP1 POP SWAP2 SWAP1 POP JUMP JUMPDEST PUSH0 PUSH2 0x803 DUP3 PUSH2 0x7DA JUMP JUMPDEST SWAP1 POP SWAP2 SWAP1 POP JUMP JUMPDEST PUSH2 0x813 DUP2 PUSH2 0x7F9 JUMP JUMPDEST DUP3 MSTORE POP POP JUMP JUMPDEST PUSH0 DUP2 MLOAD SWAP1 POP SWAP2 SWAP1 POP JUMP JUMPDEST PUSH0 DUP3 DUP3 MSTORE PUSH1 0x20 DUP3 ADD SWAP1 POP SWAP3 SWAP2 POP POP JUMP JUMPDEST PUSH0 JUMPDEST DUP4 DUP2 LT ISZERO PUSH2 0x850 JUMPI DUP1 DUP3 ADD MLOAD DUP2 DUP5 ADD MSTORE PUSH1 0x20 DUP2 ADD SWAP1 POP PUSH2 0x835 JUMP JUMPDEST PUSH0 DUP5 DUP5 ADD MSTORE POP POP POP POP JUMP JUMPDEST PUSH0 PUSH1 0x1F NOT PUSH1 0x1F DUP4 ADD AND SWAP1 POP SWAP2 SWAP1 POP JUMP JUMPDEST PUSH0 PUSH2 0x875 DUP3 PUSH2 0x819 JUMP JUMPDEST PUSH2 0x87F DUP2 DUP6 PUSH2 0x823 JUMP JUMPDEST SWAP4 POP PUSH2 0x88F DUP2 DUP6 PUSH1 0x20 DUP7 ADD PUSH2 0x833 JUMP JUMPDEST PUSH2 0x898 DUP2 PUSH2 0x85B JUMP JUMPDEST DUP5 ADD SWAP2 POP POP SWAP3 SWAP2 POP POP JUMP JUMPDEST PUSH0 DUP2 ISZERO ISZERO SWAP1 POP SWAP2 SWAP1 POP JUMP JUMPDEST PUSH2 0x8B7 DUP2 PUSH2 0x8A3 JUMP JUMPDEST DUP3 MSTORE POP POP JUMP JUMPDEST PUSH0 PUSH1 0xA0 DUP3 ADD SWAP1 POP PUSH2 0x8D0 PUSH0 DUP4 ADD DUP9 PUSH2 0x74C JUMP JUMPDEST PUSH2 0x8DD PUSH1 0x20 DUP4 ADD DUP8 PUSH2 0x80A JUMP JUMPDEST DUP2 DUP2 SUB PUSH1 0x40 DUP4 ADD MSTORE PUSH2 0x8EF DUP2 DUP7 PUSH2 0x86B JUMP JUMPDEST SWAP1 POP DUP2 DUP2 SUB PUSH1 0x60 DUP4 ADD MSTORE PUSH2 0x903 DUP2 DUP6 PUSH2 0x86B JUMP JUMPDEST SWAP1 POP PUSH2 0x912 PUSH1 0x80 DUP4 ADD DUP5 PUSH2 0x8AE JUMP JUMPDEST SWAP7 SWAP6 POP POP POP POP POP POP JUMP JUMPDEST PUSH0 DUP1 REVERT JUMPDEST PUSH0 DUP1 REVERT JUMPDEST PUSH32 0x4E487B7100000000000000000000000000000000000000000000000000000000 PUSH0 MSTORE PUSH1 0x41 PUSH1 0x4 MSTORE PUSH1 0x24 PUSH0 REVERT JUMPDEST PUSH2 0x95A DUP3 PUSH2 0x85B JUMP JUMPDEST DUP2 ADD DUP2 DUP2 LT PUSH8 0xFFFFFFFFFFFFFFFF DUP3 GT OR ISZERO PUSH2 0x979 JUMPI PUSH2 0x978 PUSH2 0x924 JUMP JUMPDEST JUMPDEST DUP1 PUSH1 0x40 MSTORE POP POP POP JUMP JUMPDEST PUSH0 PUSH2 0x98B PUSH2 0x774 JUMP JUMPDEST SWAP1 POP PUSH2 0x997 DUP3 DUP3 PUSH2 0x951 JUMP JUMPDEST SWAP2 SWAP1 POP JUMP JUMPDEST PUSH0 PUSH8 0xFFFFFFFFFFFFFFFF DUP3 GT ISZERO PUSH2 0x9B6 JUMPI PUSH2 0x9B5 PUSH2 0x924 JUMP JUMPDEST JUMPDEST PUSH2 0x9BF DUP3 PUSH2 0x85B JUMP JUMPDEST SWAP1 POP PUSH1 0x20 DUP2 ADD SWAP1 POP SWAP2 SWAP1 POP JUMP JUMPDEST DUP3 DUP2 DUP4 CALLDATACOPY PUSH0 DUP4 DUP4 ADD MSTORE POP POP POP JUMP JUMPDEST PUSH0 PUSH2 0x9EC PUSH2 0x9E7 DUP5 PUSH2 0x99C JUMP JUMPDEST PUSH2 0x982 JUMP JUMPDEST SWAP1 POP DUP3 DUP2 MSTORE PUSH1 0x20 DUP2 ADD DUP5 DUP5 DUP5 ADD GT ISZERO PUSH2 0xA08 JUMPI PUSH2 0xA07 PUSH2 0x920 JUMP JUMPDEST JUMPDEST PUSH2 0xA13 DUP5 DUP3 DUP6 PUSH2 0x9CC JUMP JUMPDEST POP SWAP4 SWAP3 POP POP POP JUMP JUMPDEST PUSH0 DUP3 PUSH1 0x1F DUP4 ADD SLT PUSH2 0xA2F JUMPI PUSH2 0xA2E PUSH2 0x91C JUMP JUMPDEST JUMPDEST DUP2 CALLDATALOAD PUSH2 0xA3F DUP5 DUP3 PUSH1 0x20 DUP7 ADD PUSH2 0x9DA JUMP JUMPDEST SWAP2 POP POP SWAP3 SWAP2 POP POP JUMP JUMPDEST PUSH0 PUSH1 0x20 DUP3 DUP5 SUB SLT ISZERO PUSH2 0xA5D JUMPI PUSH2 0xA5C PUSH2 0x77D JUMP JUMPDEST JUMPDEST PUSH0 DUP3 ADD CALLDATALOAD PUSH8 0xFFFFFFFFFFFFFFFF DUP2 GT ISZERO PUSH2 0xA7A JUMPI PUSH2 0xA79 PUSH2 0x781 JUMP JUMPDEST JUMPDEST PUSH2 0xA86 DUP5 DUP3 DUP6 ADD PUSH2 0xA1B JUMP JUMPDEST SWAP2 POP POP SWAP3 SWAP2 POP POP JUMP JUMPDEST PUSH0 DUP1 PUSH1 0x40 DUP4 DUP6 SUB SLT ISZERO PUSH2 0xAA5 JUMPI PUSH2 0xAA4 PUSH2 0x77D JUMP JUMPDEST JUMPDEST PUSH0 PUSH2 0xAB2 DUP6 DUP3 DUP7 ADD PUSH2 0x79B JUMP JUMPDEST SWAP3 POP POP PUSH1 0x20 DUP4 ADD CALLDATALOAD PUSH8 0xFFFFFFFFFFFFFFFF DUP2 GT ISZERO PUSH2 0xAD3 JUMPI PUSH2 0xAD2 PUSH2 0x781 JUMP JUMPDEST JUMPDEST PUSH2 0xADF DUP6 DUP3 DUP7 ADD PUSH2 0xA1B JUMP JUMPDEST SWAP2 POP POP SWAP3 POP SWAP3 SWAP1 POP JUMP JUMPDEST PUSH0 PUSH1 0x40 DUP3 ADD SWAP1 POP DUP2 DUP2 SUB PUSH0 DUP4 ADD MSTORE PUSH2 0xB01 DUP2 DUP6 PUSH2 0x86B JUMP JUMPDEST SWAP1 POP DUP2 DUP2 SUB PUSH1 0x20 DUP4 ADD MSTORE PUSH2 0xB15 DUP2 DUP5 PUSH2 0x86B JUMP JUMPDEST SWAP1 POP SWAP4 SWAP3 POP POP POP JUMP JUMPDEST PUSH32 0x4E487B7100000000000000000000000000000000000000000000000000000000 PUSH0 MSTORE PUSH1 0x22 PUSH1 0x4 MSTORE PUSH1 0x24 PUSH0 REVERT JUMPDEST PUSH0 PUSH1 0x2 DUP3 DIV SWAP1 POP PUSH1 0x1 DUP3 AND DUP1 PUSH2 0xB62 JUMPI PUSH1 0x7F DUP3 AND SWAP2 POP JUMPDEST PUSH1 0x20 DUP3 LT DUP2 SUB PUSH2 0xB75 JUMPI PUSH2 0xB74 PUSH2 0xB1E JUMP JUMPDEST JUMPDEST POP SWAP2 SWAP1 POP JUMP JUMPDEST PUSH0 DUP2 SWAP1 POP DUP2 PUSH0 MSTORE PUSH1 0x20 PUSH0 KECCAK256 SWAP1 POP SWAP2 SWAP1 POP JUMP JUMPDEST PUSH0 PUSH1 0x20 PUSH1 0x1F DUP4 ADD DIV SWAP1 POP SWAP2 SWAP1 POP JUMP JUMPDEST PUSH0 DUP3 DUP3 SHL SWAP1 POP SWAP3 SWAP2 POP POP JUMP JUMPDEST PUSH0 PUSH1 0x8 DUP4 MUL PUSH2 0xBD7 PUSH32 0xFFFFFFFFFFFFFFFFFFFFFFFFFFFFFFFFFFFFFFFFFFFFFFFFFFFFFFFFFFFFFFFF DUP3 PUSH2 0xB9C JUMP JUMPDEST PUSH2 0xBE1 DUP7 DUP4 PUSH2 0xB9C JUMP JUMPDEST SWAP6 POP DUP1 NOT DUP5 AND SWAP4 POP DUP1 DUP7 AND DUP5 OR SWAP3 POP POP POP SWAP4 SWAP3 POP POP POP JUMP JUMPDEST PUSH0 DUP2 SWAP1 POP SWAP2 SWAP1 POP JUMP JUMPDEST PUSH0 PUSH2 0xC1C PUSH2 0xC17 PUSH2 0xC12 DUP5 PUSH2 0x743 JUMP JUMPDEST PUSH2 0xBF9 JUMP JUMPDEST PUSH2 0x743 JUMP JUMPDEST SWAP1 POP SWAP2 SWAP1 POP JUMP JUMPDEST PUSH0 DUP2 SWAP1 POP SWAP2 SWAP1 POP JUMP JUMPDEST PUSH2 0xC35 DUP4 PUSH2 0xC02 JUMP JUMPDEST PUSH2 0xC49 PUSH2 0xC41 DUP3 PUSH2 0xC23 JUMP JUMPDEST DUP5 DUP5 SLOAD PUSH2 0xBA8 JUMP JUMPDEST DUP3 SSTORE POP POP POP POP JUMP JUMPDEST PUSH0 SWAP1 JUMP JUMPDEST PUSH2 0xC5D PUSH2 0xC51 JUMP JUMPDEST PUSH2 0xC68 DUP2 DUP5 DUP5 PUSH2 0xC2C JUMP JUMPDEST POP POP POP JUMP JUMPDEST JUMPDEST DUP2 DUP2 LT ISZERO PUSH2 0xC8B JUMPI PUSH2 0xC80 PUSH0 DUP3 PUSH2 0xC55 JUMP JUMPDEST PUSH1 0x1 DUP2 ADD SWAP1 POP PUSH2 0xC6E JUMP JUMPDEST POP POP JUMP JUMPDEST PUSH1 0x1F DUP3 GT ISZERO PUSH2 0xCD0 JUMPI PUSH2 0xCA1 DUP2 PUSH2 0xB7B JUMP JUMPDEST PUSH2 0xCAA DUP5 PUSH2 0xB8D JUMP JUMPDEST DUP2 ADD PUSH1 0x20 DUP6 LT ISZERO PUSH2 0xCB9 JUMPI DUP2 SWAP1 POP JUMPDEST PUSH2 0xCCD PUSH2 0xCC5 DUP6 PUSH2 0xB8D JUMP JUMPDEST DUP4 ADD DUP3 PUSH2 0xC6D JUMP JUMPDEST POP POP JUMPDEST POP POP POP JUMP JUMPDEST PUSH0 DUP3 DUP3 SHR SWAP1 POP SWAP3 SWAP2 POP POP JUMP JUMPDEST PUSH0 PUSH2 0xCF0 PUSH0 NOT DUP5 PUSH1 0x8 MUL PUSH2 0xCD5 JUMP JUMPDEST NOT DUP1 DUP4 AND SWAP2 POP POP SWAP3 SWAP2 POP POP JUMP JUMPDEST PUSH0 PUSH2 0xD08 DUP4 DUP4 PUSH2 0xCE1 JUMP JUMPDEST SWAP2 POP DUP3 PUSH1 0x2 MUL DUP3 OR SWAP1 POP SWAP3 SWAP2 POP POP JUMP JUMPDEST PUSH2 0xD21 DUP3 PUSH2 0x819 JUMP JUMPDEST PUSH8 0xFFFFFFFFFFFFFFFF DUP2 GT ISZERO PUSH2 0xD3A JUMPI PUSH2 0xD39 PUSH2 0x924 JUMP JUMPDEST JUMPDEST PUSH2 0xD44 DUP3 SLOAD PUSH2 0xB4B JUMP JUMPDEST PUSH2 0xD4F DUP3 DUP3 DUP6 PUSH2 0xC8F JUMP JUMPDEST PUSH0 PUSH1 0x20 SWAP1 POP PUSH1 0x1F DUP4 GT PUSH1 0x1 DUP2 EQ PUSH2 0xD80 JUMPI PUSH0 DUP5 ISZERO PUSH2 0xD6E JUMPI DUP3 DUP8 ADD MLOAD SWAP1 POP JUMPDEST PUSH2 0xD78 DUP6 DUP3 PUSH2 0xCFD JUMP JUMPDEST DUP7 SSTORE POP PUSH2 0xDDF JUMP JUMPDEST PUSH1 0x1F NOT DUP5 AND PUSH2 0xD8E DUP7 PUSH2 0xB7B JUMP JUMPDEST PUSH0 JUMPDEST DUP3 DUP2 LT ISZERO PUSH2 0xDB5 JUMPI DUP5 DUP10 ADD MLOAD DUP3 SSTORE PUSH1 0x1 DUP3 ADD SWAP2 POP PUSH1 0x20 DUP6 ADD SWAP5 POP PUSH1 0x20 DUP2 ADD SWAP1 POP PUSH2 0xD90 JUMP JUMPDEST DUP7 DUP4 LT ISZERO PUSH2 0xDD2 JUMPI DUP5 DUP10 ADD MLOAD PUSH2 0xDCE PUSH1 0x1F DUP10 AND DUP3 PUSH2 0xCE1 JUMP JUMPDEST DUP4 SSTORE POP JUMPDEST PUSH1 0x1 PUSH1 0x2 DUP9 MUL ADD DUP9 SSTORE POP POP POP JUMPDEST POP POP POP POP POP POP JUMP JUMPDEST PUSH0 PUSH1 0x40 DUP3 ADD SWAP1 POP PUSH2 0xDFA PUSH0 DUP4 ADD DUP6 PUSH2 0x74C JUMP JUMPDEST PUSH2 0xE07 PUSH1 0x20 DUP4 ADD DUP5 PUSH2 0x80A JUMP JUMPDEST SWAP4 SWAP3 POP POP POP JUMP JUMPDEST PUSH32 0x4E487B7100000000000000000000000000000000000000000000000000000000 PUSH0 MSTORE PUSH1 0x11 PUSH1 0x4 MSTORE PUSH1 0x24 PUSH0 REVERT JUMPDEST PUSH0 PUSH2 0xE45 DUP3 PUSH2 0x743 JUMP JUMPDEST SWAP2 POP PUSH32 0xFFFFFFFFFFFFFFFFFFFFFFFFFFFFFFFFFFFFFFFFFFFFFFFFFFFFFFFFFFFFFFFF DUP3 SUB PUSH2 0xE77 JUMPI PUSH2 0xE76 PUSH2 0xE0E JUMP JUMPDEST JUMPDEST PUSH1 0x1 DUP3 ADD SWAP1 POP SWAP2 SWAP1 POP JUMP JUMPDEST PUSH32 0x4E487B7100000000000000000000000000000000000000000000000000000000 PUSH0 MSTORE PUSH1 0x32 PUSH1 0x4 MSTORE PUSH1 0x24 PUSH0 REVERT JUMPDEST PUSH32 0x436F6D706C61696E7420616C7265616479207265706C69656400000000000000 PUSH0 DUP3 ADD MSTORE POP JUMP JUMPDEST PUSH0 PUSH2 0xEE3 PUSH1 0x19 DUP4 PUSH2 0x823 JUMP JUMPDEST SWAP2 POP PUSH2 0xEEE DUP3 PUSH2 0xEAF JUMP JUMPDEST PUSH1 0x20 DUP3 ADD SWAP1 POP SWAP2 SWAP1 POP JUMP JUMPDEST PUSH0 PUSH1 0x20 DUP3 ADD SWAP1 POP DUP2 DUP2 SUB PUSH0 DUP4 ADD MSTORE PUSH2 0xF10 DUP2 PUSH2 0xED7 JUMP JUMPDEST SWAP1 POP SWAP2 SWAP1 POP JUMP JUMPDEST PUSH32 0x50617469656E742063616E6E6F74207265706C7920746F207468656972206F77 PUSH0 DUP3 ADD MSTORE PUSH32 0x6E20636F6D706C61696E74000000000000000000000000000000000000000000 PUSH1 0x20 DUP3 ADD MSTORE POP JUMP JUMPDEST PUSH0 PUSH2 0xF71 PUSH1 0x2B DUP4 PUSH2 0x823 JUMP JUMPDEST SWAP2 POP PUSH2 0xF7C DUP3 PUSH2 0xF17 JUMP JUMPDEST PUSH1 0x40 DUP3 ADD SWAP1 POP SWAP2 SWAP1 POP JUMP JUMPDEST PUSH0 PUSH1 0x20 DUP3 ADD SWAP1 POP DUP2 DUP2 SUB PUSH0 DUP4 ADD MSTORE PUSH2 0xF9E DUP2 PUSH2 0xF65 JUMP JUMPDEST SWAP1 POP SWAP2 SWAP1 POP JUMP JUMPDEST PUSH0 PUSH1 0x40 DUP3 ADD SWAP1 POP PUSH2 0xFB8 PUSH0 DUP4 ADD DUP6 PUSH2 0x74C JUMP JUMPDEST DUP2 DUP2 SUB PUSH1 0x20 DUP4 ADD MSTORE PUSH2 0xFCA DUP2 DUP5 PUSH2 0x86B JUMP JUMPDEST SWAP1 POP SWAP4 SWAP3 POP POP POP JUMP INVALID LOG2 PUSH5 0x6970667358 0x22 SLT KECCAK256 CALLDATASIZE EXTCODESIZE 0xBF 0x27 DIV DUP9 PUSH8 0x1D35D708582CFD9B MSTORE PUSH15 0x2973C04EA9F1ABFE03E448FCC44E4C PUSH5 0x736F6C6343 STOP ADDMOD AND STOP CALLER "
				},
				"gasEstimates": {
					"creation": {
						"codeDepositCost": "821000",
						"executionCost": "855",
						"totalCost": "821855"
					},
					"external": {
						"addComplaint(string)": "infinite",
						"complaintCount()": "2403",
						"complaints(uint256)": "infinite",
						"getComplaint(uint256)": "infinite",
						"replyToComplaint(uint256,string)": "infinite"
					}
				},
				"methodIdentifiers": {
					"addComplaint(string)": "dd681725",
					"complaintCount()": "2edea294",
					"complaints(uint256)": "7e69e912",
					"getComplaint(uint256)": "dee8ae43",
					"replyToComplaint(uint256,string)": "deb514ff"
				}
			},
			"storageLayout": {
				"storage": [
					{
						"astId": 16,
						"contract": "healt.sol:HealthComplaints",
						"label": "complaints",
						"offset": 0,
						"slot": "0",
						"type": "t_array(t_struct(Complaint)12_storage)dyn_storage"
					},
					{
						"astId": 18,
						"contract": "healt.sol:HealthComplaints",
						"label": "complaintCount",
						"offset": 0,
						"slot": "1",
						"type": "t_uint256"
					}
				],
				"types": {
					"t_address": {
						"encoding": "inplace",
						"label": "address",
						"numberOfBytes": "20"
					},
					"t_array(t_struct(Complaint)12_storage)dyn_storage": {
						"base": "t_struct(Complaint)12_storage",
						"encoding": "dynamic_array",
						"label": "struct HealthComplaints.Complaint[]",
						"numberOfBytes": "32"
					},
					"t_bool": {
						"encoding": "inplace",
						"label": "bool",
						"numberOfBytes": "1"
					},
					"t_string_storage": {
						"encoding": "bytes",
						"label": "string",
						"numberOfBytes": "32"
					},
					"t_struct(Complaint)12_storage": {
						"encoding": "inplace",
						"label": "struct HealthComplaints.Complaint",
						"members": [
							{
								"astId": 3,
								"contract": "healt.sol:HealthComplaints",
								"label": "id",
								"offset": 0,
								"slot": "0",
								"type": "t_uint256"
							},
							{
								"astId": 5,
								"contract": "healt.sol:HealthComplaints",
								"label": "patient",
								"offset": 0,
								"slot": "1",
								"type": "t_address"
							},
							{
								"astId": 7,
								"contract": "healt.sol:HealthComplaints",
								"label": "complaintText",
								"offset": 0,
								"slot": "2",
								"type": "t_string_storage"
							},
							{
								"astId": 9,
								"contract": "healt.sol:HealthComplaints",
								"label": "reply",
								"offset": 0,
								"slot": "3",
								"type": "t_string_storage"
							},
							{
								"astId": 11,
								"contract": "healt.sol:HealthComplaints",
								"label": "replied",
								"offset": 0,
								"slot": "4",
								"type": "t_bool"
							}
						],
						"numberOfBytes": "160"
					},
					"t_uint256": {
						"encoding": "inplace",
						"label": "uint256",
						"numberOfBytes": "32"
					}
				}
			},
			"userdoc": {
				"kind": "user",
				"methods": {},
				"version": 1
			}
		}
	}
}